:1010000097510000938181A417010100130181BE53
:1010100017450000130505D297450000938585D13B
:10102000174600001306462463FCC5008322050012
:1010300023A055001305450093854500E3E8C5FE50
:10104000174500001305452297F50000938585BAE2
:101050006378B5002320050013054500E36CB5FE59
:0C106000EF00800E6F00000067800000B1
:10106C001303F00013070500637EC3029377F700A8
:10107C006390070A63920508937606FF1376F600D1
:10108C00B386E6002320B7002322B7002324B70041
:10109C002326B70013070701E366D7FE6314060087
:1010AC0067800000B306C3409396260097020000A9
:1010BC00B38656006780C6002307B700A306B700A7
:1010CC002306B700A305B7002305B700A304B70098
:1010DC002304B700A303B7002303B700A302B70090
:1010EC002302B700A301B7002301B700A300B70088
:1010FC002300B7006780000093F5F50F93968500E9
:10110C00B3E5D50093960501B3E5D5006FF0DFF696
:10111C009396270097020000B38656009382000036
:10112C00E78006FA93800200938707FF3307F740A6
:10113C003306F600E378C3F66FF0DFF3130101ED2D
:10114C0023261112232481122322911223202113EE
:10115C00232E3111232C4111232A511123286111E3
:10116C002326711123248111232291112320A111F3
:10117C00232EB10FB70701F81307B00623A4E7001D
:10118C00B70701F81307700023A6E700B70510F89E
:10119C0013050105EF00D00C630A05049305050047
:1011AC00375500001305C5DAEF0040538320C112F8
:1011BC000324811283244112032901128329C111B2
:1011CC00032A8111832A4111032B0111832BC11096
:1011DC00032C8110832C4110032D0110832DC10F82
:1011EC00130510001301011367800000EF0000725B
:1011FC00930505006314050093051000370510F8DE
:10120C00EF20D01493371500232CF10013040500A4
:10121C00EF205026EF00C07113054102EF10407310
:10122C00130600039305000013050108EFF05FE3BC
:10123C00130680019305000013058106EFF05FE2B1
:10124C0093371400930610001306006093050010EA
:10125C0013050105A30EF106EF00105AE31805F46F
:10126C00B7E5F50537550000130604009385051006
:10127C00130545DCEF008046EF004069B7660000BF
:10128C00938646BC2322D10003264100B78600007A
:10129C0093090500B306D600938B050013040000D8
:1012AC00130B00001309000093070000130A000041
:1012BC009304000013070000232ED100B75D00003B
:1012CC00B75601F883A6060093C7F7FF930A0700E9
:1012DC0093C6F6FF13FD3600B3F7A70193F617007C
:1012EC0063880600930A000063040700930AF7FF63
:1012FC0093F72700638A070093871A009306600010
:10130C0063E4F600938A0700630C573313068001DD
:10131C009305000013050108EFF09FD4130680011C
:10132C009305000013058109EFF09FD3130900000A
:10133C00231D0106130A000093040000B757000098
:10134C0013972A00938707FBB387E70083A707004F
:10135C008326810103258102B7EC000093850700E9
:10136C0013878CBC13060A002320F100EF20901980
:10137C009307050063160532EF00805BEF00005900
:10138C00B70701002324B100130C0500938787BC19
:10139C00638C042C03A60702B79698009386066804
:1013AC0093858CBC13050105EF2090592328A100CF
:1013BC00EF000058EF00805583278100330C8541E6
:1013CC0033358501B385F540B387A5402326F1005D
:1013DC00832701016396072C8357010003264100E4
:1013EC0003258102930581062324F100231CF106B9
:1013FC00230E9106EF101017930705006312052AB0
:10140C008327C1010325410083D50700EF2010324B
:10141C009307050063160528EF0080513796980056
:10142C00130606689305410213050105EF10C0531E
:10143C009307050063160526EF00404DB3093541AF
:10144C00B38B7541B3373501B387FB402328F100CB
:10145C00B30B9040930701080327C1000326010139
:10146C0093FB8B01B38B7701232AB100930C0500FE
:10147C0093060C009385090013850B00EF20D055C3
:10148C0093070500631E0520638804109305010B68
:10149C0013050105EF00903B93070500631205202F
:1014AC0083270101B7E5F50593850510232EF1027D
:1014BC008327C10013058103232C31032322F1045C
:1014CC0093071000232081052324F104EF20D05B27
:1014DC00032C810D8329C10D1307190033048C4093
:1014EC00B3378C00338B6941330BFB40B7070A00D1
:1014FC006374F5189307A0003355F5020326810099
:10150C008346310693874D2613193900B38727017B
:10151C002390A7002391C700B336D00063160B00AD
:10152C00370601006366C400370401001304F4FF9E
:10153C0023928700B75700009387472633892701EA
:10154C002313D9009307C0126312F7041306C102C8
:10155C009305C01213854D26EF00D041930705006B
:10156C00631005148357E10203274103832601030B
:10157C000356C1028325010037550000B337F00034
:10158C00130585E0EF0080151307000013040C0011
:10159C00138B090013090700130A1A009307E001C3
:1015AC006316FA08B7E5F5059385051013850B004E
:1015BC00EF20904DB7E5F5052324A1009385051088
:1015CC0013850B00EF20905403278100930705002F
:1015DC00638A040A93061000B75500002326E1061F
:1015EC00232AA106A30DD106938545DA0326010013
:1015FC00375500009306E001130585E5EF00000E5A
:10160C00130580013385A402130701021306800120
:10161C009305000093C41400130A00009307050DF2
:10162C003385E700130505F9EFF09FA3832B4101E8
:10163C0093890C0093070D0013870A006FF05FC8A5
:10164C00E38E04CEE31C0ACE9305010B13050105B2
:10165C00EF00D01F93070500631405040324810DCC
:10166C00032BC10D6FF09FCD83A5070213858CBC96
:10167C00EF20D00B6FF09FD3370501001305F5FF5A
:10168C006FF0DFE793061000B75500002324E10646
:10169C002328A106230DD106938585DA6FF01FF55B
:1016AC00034631063755000093850700130505E9FD
:1016BC00EF00C0026FF09FAFB70701F893874700A8
:1016CC0003A707009356070193F6F60FE38A06FE6D
:1016DC00B70701F823A0A70067800000130101F8E9
:1016EC00232AF106930741062328210523263105D9
:1016FC00232441052322510523206105232E710348
:10170C00232E1104232C8104232A9104232C8103DE
:10171C00232A9103930905002322B1062324C10631
:10172C002326D1062328E106232C0107232E11079B
:10173C002326F10013090000130A5002930A6006D5
:10174C00130B6006930B3006B387290103C5070002
:10175C00631C05028320C1050324810583244105F4
:10176C00032901058329C104032A8104832A410426
:10177C00032B0104832BC103032C8103832C410312
:10178C0013010108678000006318450D1309190047
:10179C00B387290183C707006380070E638257173D
:1017AC00636CFB046382770B130740066380E70EC0
:1017BC0013078005E39CE7FC8327C100B7540000A6
:1017CC001304C00183AC0700138747002326E100F4
:1017DC009384C4D7130CC0FFB3D78C0093F7F700D6
:1017EC00B387F40003C507001304C4FFEFF0DFEC6C
:1017FC00E31484FF6F004008130730076382E70689
:10180C0013078007E394E7F88327C100B75400005F
:10181C001304C00183AC0700138747002326E100A3
:10182C00938404D9130CC0FFB3D78C0093F7F70043
:10183C00B387F40003C507001304C4FFEFF0DFE720
:10184C00E31484FF6F0040038327C10003C5070026
:10185C00138747002326E100EFF01FE66F00C0015D
:10186C008327C10003A40700138747002326E10048
:10187C000345040063160500130919006FF0DFEC33
:10188C0013041400EFF05FE36FF09FFE8327C10099
:10189C0083A40700138747002326E10063D80400C4
:1018AC001305D002EFF05FE1B30490401304010183
:1018BC00130C04001307A000639E0400630C840146
:1018CC000345F4FF1304F4FFEFF01FDFE31A84FF6A
:1018DC006FF09FFAB3E7E402130414009387070335
:1018EC00B3C4E402A30FF4FE6FF01FFD1304140045
:1018FC00EFF09FDC03450400E31A05FE6FF0DFF701
:10190C0037540000130404D36FF0DFFEB7C7B0F8F0
:10191C0037C7B0F89387C7FF130787FF83A5070066
:10192C000325070083A60700E39AD5FE6780000015
:10193C000F00F00F0F5000000F00F00F6780000039
:10194C000327050093070500130530001308470310
:10195C001307870383250800032607008326080046
:10196C009395050193D505019396060193D606012F
:10197C00639CD50283D6C7001376F60FB386D54089
:10198C009396060193D606016388060403C72701C4
:10199C001305A0FF6360D702A389C700630E06007E
:1019AC00130590FF678000001305F5FFE31405FA9B
:1019BC001305A0FF678000003307D7401377F70F9C
:1019CC002389E7003337E0002396B700A388E700AC
:1019DC001305000067800000A389C700E30A06FE18
:1019EC006FF01FFC130705001305200063040606A7
:1019FC0063860606B367B70093F71700130530002C
:101A0C00639E0704131616001305400063E8C50413
:101A1C009386F6FFB387B60213055000B3B6B60231
:101A2C003386C700B337F600B387D700B306E6009A
:101A3C0033B6C6003306F600B70700026360F70240
:101A4C00631C0600B707001063E8D70013050000FD
:101A5C00678000006780000013055000678000005D
:101A6C006302050A130101FF2322910023261100B2
:101A7C002324810013F7350093840500930780FF1E
:101A8C006316070613068001930500001304050076
:101A9C00EFF00FDD83A60400374744322320940077
:101AAC00130707759307F0FF6392E60483A64400BF
:101ABC00370701009307E0FF639AE60283A744030C
:101ACC009397070193D707012316F4009387170008
:101ADC009397070193D707012315F4002314F400FF
:101AEC00930710002308F400930700008320C10023
:101AFC000324810083244100138507001301010195
:101B0C0067800000930780FF138507006780000043
:101B1C006304052A130101FD2322910223261102DD
:101B2C002324810223202103232E3101232C410164
:101B3C00232A5101232861012326710123248101C9
:101B4C00232291018347050193040500130580FFAF
:101B5C006380070493090600630C060213840500D6
:101B6C006388050283D785016394070283CBC50183
:101B7C00930710006398FB04835624010356040159
:101B8C008325C40003254400EFF0DFE5630E050454
:101B9C008320C10203248102832441020329010210
:101BAC008329C101032A8101832A4101032B0101ED
:101BBC00832BC100032C8100832C410013010103F2
:101BCC0067800000930760006390FB1083A74500BB
:101BDC003707E0FF1307F7FFB3F7E70037070002FB
:101BEC0013055000E396E7FA83A70400130590FF52
:101BFC0003A787031377F70FA389E400E31A07F809
:101C0C0003A7870003C644019376F7016374D600DB
:101C1C00238AD400137707041305C0FFE31A07F6D1
:101C2C0083C624011307F000E364D7F603D7A4009E
:101C3C00930617002395D40023A87701832604006C
:101C4C0023AAD7008326440023ACD70083260401A3
:101C5C0023AED7008326840023A0D7028326C4009A
:101C6C0023A2D7028326440123A4D7028346D4019E
:101C7C0023A6D70223A8E7020F00F00F83A70400C6
:101C8C009306100023A6D7000F00F00F83A7440083
:101C9C00A388D40083C644019387170023A2F400C1
:101CAC0083C724012397E4009387170093F7F70F5A
:101CBC002389F40063F4F600238AF4002390E900EE
:101CCC00130500006FF0DFEC930750006398FB02E4
:101CDC0083A705001305300013F73700E31A07EA52
:101CEC00370700FEB387E7003707000E1307C7FF5F
:101CFC0013055000E372F7E86FF09FE99387EBFF51
:101D0C0093F7F70F1307200013051000E362F7E8B1
:101D1C0003AC050003D9050103DA250103AB8500EB
:101D2C001306090093060A0093050B0013050C001B
:101D3C00EFF05FCBE31E05E4832C4400832AC40040
:101D4C0093060A001306090093850A0013850C00FC
:101D5C00EFF05FC9E31E05E29306FAFFB387560363
:101D6C00131919003307990133362701B3BA5603F7
:101D7C003387E700B337F700B38ACA00B38757013C
:101D8C0063940700E372ECE6B387660333092C0116
:101D9C00333C8901B3B6660333892701B337F900A5
:101DAC00B3868601B387D70063940700E3FE2CE368
:101DBC00130560006FF0DFDD130580FF6780000006
:101DCC00130101FE232C8100232A910023282101D9
:101DDC002326310123244101232E110093040500F5
:101DEC00138905001304060093890600130AC0FF2B
:101DFC00138609009305090013850400EFF05FD1E9
:101E0C00631C4501630A040213850400EFF05FB301
:101E1C001304F4FFE30E05FC8320C10103248101AC
:101E2C0083244101032901018329C100032A810074
:101E3C0013010102678000001305B0FF6FF0DFFD96
:101E4C0063080508130101FF2324810023261100D8
:101E5C00232291008347050113040500130580FF1D
:101E6C00638E0704032744001305A0FF63080704CF
:101E7C00B70601008357840093840500637AD7006A
:101E8C00B387F5409397070193D7070163F8E702EF
:101E9C0013050400EFF0DFAA631205028347240147
:101EAC00638E07000357A4003387E740B384E40034
:101EBC009394040193D4040133B5F4008320C1003E
:101ECC000324810083244100130101016780000079
:101EDC00130580FF67800000130101FD232481029C
:101EEC0023229102232021031304050013890500EA
:101EFC00930406009305000013060002130501006D
:101F0C0023261102EFF0CF95930720002326F10032
:101F1C00B7070100938717002328F10013860400EC
:101F2C00930760009305010013050400232221018F
:101F3C00230EF100EFF0DFBD8320C10203248102E8
:101F4C00832441020329010213010103678000006D
:101F5C006300050A130101FE232C8100232E1100BE
:101F6C00232A9100232821012326310183470501CF
:101F7C0013040500130580FF638A0702032744003E
:101F8C001305A0FF63040702B70601008357840002
:101F9C0013890500930406006378D704B387F540D2
:101FAC009397070193D7070163E0E7048320C101EE
:101FBC000324810183244101032901018329C100E8
:101FCC00130101026780000093050900130504004A
:101FDC00EFF01FE79384F4FFE31A35FDE39604FE5C
:101FEC001305B0FF6FF09FFC930910006FF01FFFFB
:101FFC00130580FF67800000930705006304050448
:10200C0003470501130580FF6300070463FEC50247
:10201C0037170000637AE602130710006366D702D5
:10202C0083A7070013160601B365B6009396F60155
:10203C00B3E5D50023A4B7040F00F00F130500007F
:10204C0067800000130580FF678000009307050080
:10205C006308050A03470501130580FF6304070A9B
:10206C006382050A03A70700930610002326D704F2
:10207C000F00F00F83A707001305000083A60705C8
:10208C0003A7470523A0D50023A2E50083A6870557
:10209C0003A7C70523A4D50023A6E50083A607063E
:1020AC0003A7470623A8D50023AAE50083A6870625
:1020BC0003A7C70623ACD50023AEE50083A607070C
:1020CC0003A7470723A0D50223A2E50283A687070F
:1020DC0003A7C70723A4D50223A6E50283A60708F6
:1020EC0003A7470823A8D50223AAE50203A787085C
:1020FC0083A7C70823ACE50223AEF5026780000076
:10210C00130580FF6780000093062500130710005D
:10211C006364B70293075000B385F502930740063A
:10212C0093853506B3D5F502939515003305B500A7
:10213C000355E5FF6780000003D8060013860600F0
:10214C00930707008358E6FF637A180123101601E2
:10215C009387F7FF1306E6FFE39607FE93971700A6
:10216C00B307F50023900701130717009386260089
:10217C006FF01FFA630E0514130101B2232C814C6E
:10218C00232A914C232E114C2328214D2326314DEB
:10219C002324414D2322514D2320614D232E714B7D
:1021AC009304050013040600130580FF630E060656
:1021BC009307C012639AF506371900001307010044
:1021CC001309099623200600232206002324060067
:1021DC003389240193870400130A0000930900003B
:1021EC001305070083D60700938787001307270082
:1021FC00231FD7FE83D6C7FFB389D90083D6E7FF49
:10220C00330ADA00E39027FF23223401232444010C
:10221C009305C012EFF05FEF2310A4009307B003F7
:10222C0063EAA702130500008320C14D0324814DEE
:10223C008324414D0329014D8329C14C032A814C30
:10224C00832A414C032B014C832BC14B1301014EB0
:10225C0067800000B3E94901E39609FCB717000059
:10226C0093872796138A2400B389F400130BD001AB
:10227C00930BB003835A0A008357240063F4570569
:10228C00938704009305000003D72700636E570162
:10229C001397150083D607001307074B3307270046
:1022AC002314D7DA9385150093878700E39E27FDC7
:1022BC00637ABB0013058125EFF01FE563F4AB00D7
:1022CC0023115401130A8A00E3163AFB6FF09FF5B1
:1022DC00130580FF67800000130101FD2326A10078
:1022EC002326810223249102232221032324D100BB
:1022FC002310E1002311B1002312F1002313C100BC
:10230C0013052000630208106380081013141800D2
:10231C0093028100930F0101130F8101130E000032
:10232C009384F8FF9303200003A3020063040310BB
:10233C0003270300630007108327C3003365F700EE
:10234C00137515006310050E835583001396150045
:10235C0063EEC70C8356A300638E060CB30EC1014B
:10236C0003D90E00B30E090163E6D50D93054100A8
:10237C00B385C50183DE0500B385D80163ECB60ACD
:10238C009386F6FFB385D702B3A6F6023386C50053
:10239C00B335B600B385D50083264300639C05088E
:1023AC0063EAC6089346F7FF63E6C608B38ED70305
:1023BC00131919003307270193824200938F4F00A2
:1023CC00130F4F00B387F4023307D70123AEEFFE90
:1023DC00B3878700B387E700232EFFFE63107E04CC
:1023EC00832701018326C1010327410163F6D7002E
:1023FC00832681016364D7048326010323A0E600AE
:10240C00032741032320F7000324C1028324810204
:10241C00032941021301010367800000130E200001
:10242C006FF09FF0130530006FF01FFE1305400096
:10243C006FF09FFD130550006FF01FFD130560003A
:10244C006FF09FFC13080500630A050C8328050038
:10245C00130550006386080C130520006382060CDC
:10246C006300070C035F8800630C0F0A835EA800EF
:10247C0063880E0A93F81800130530006392080A5B
:10248C000323C8001375130063120508131E1F00E5
:10249C006362C309938FFEFFB308F30333A36F0288
:1024AC00338EC801B3381E01B3886800032348007B
:1024BC00639608066364C307B388D50063601F077F
:1024CC003307C70063ECEE049395150013DE870009
:1024DC006364E600678000000323C80083280800BB
:1024EC00330366023303B300B388680013030000A0
:1024FC002380F800A380C8011303130093882800DD
:10250C00E368D3FE130616006FF09FFC1305300032
:10251C006780000013054000678000001305500021
:10252C0067800000130101FC232E8102232C9102F1
:10253C00232A210323283103232641032324D100FA
:10254C002326A1002310E1002311B1002312F10076
:10255C002313C10063000816130E05001305200099
:10256C00638808129313180093028100930F0101E2
:10257C00130F8101930E00009384F8FF13042000C5
:10258C0003A902006304091403270900630007145C
:10259C008327C9003365F700137515006310051206
:1025AC00035389009315130063EEB7100356A9006B
:1025BC00630E0610B309D10103DA0900B3090A014D
:1025CC0063663311130341003303D30183590300B2
:1025DC0033831901636C660E1306F6FF3383C7024F
:1025EC003326F602B305B30033B365003303C300DF
:1025FC0003264900631C030C636AB60C1346F7FFF1
:10260C006366B60CB3893703131A1A0033074701F4
:10261C0093824200938F4F00130F4F00B387F40245
:10262C003307370123AEEFFEB3877700B387E7009C
:10263C00232EFFFE639C8E06032801018327C10114
:10264C00032341016376F800832781016364F30857
:10265C00930700001307000083A5C6003306E800AB
:10266C00B385B7023306B6008325CE00834E060031
:10267C0033066700B385B702130717003306B6009D
:10268C002300D601E36A77FC93871700E394F8FCE8
:10269C000324C103832481030329410383290103F8
:1026AC00032AC1021301010467800000930E20006D
:1026BC006FF01FED130520006FF09FFD1305300028
:1026CC006FF01FFD130540006FF09FFC13055000C9
:1026DC006FF01FFC130560006FF09FFB130101FCF2
:1026EC001303C10123226100130381012320610024
:1026FC00232C8102232A9102232821032326310330
:10270C0023244103232E1102035A010493040500D0
:10271C00138906009309080013840800EFF0DFBB4F
:10272C00631A05000328C1018328810113070000E7
:10273C00636287028320C103032481038324410342
:10274C00032901038329C102032A81021301010415
:10275C00678000000326C90083A5C400930600000F
:10276C003306C702B305B70233060601B38515015C
:10277C0063E63601130717006FF09FFB13931600E7
:10278C00B307660003CE070083C717009397870033
:10279C00B3E7C701630AFA00338365002300F30033
:1027AC0093D78700A300F300938616006FF05FFCAD
:1027BC00130101FB1303C1012322610013038101E7
:1027CC002320610023248104232E3103232C410375
:1027DC00232A510323286103232671032320A103F9
:1027EC00834B010523261104232291042320210568
:1027FC002324810323229103130A0500938A0600E4
:10280C00130B080093890800EFF01FAD130D0500A2
:10281C0013040000630605068320C104032481040D
:10282C0083244104032901048329C103032A81035E
:10283C00832A4103032B0103832BC102032C810246
:10284C00832C410213050D00032D01021301010518
:10285C006780000083A4CA000329CA008327C10132
:10286C00B3049402130C000033092403B384F40062
:10287C00832781013309F90063686C011304140088
:10288C00E36A34FD6FF05FF993171C00B30CF90089
:10289C00B387F40003C5070003C71C0083C71700E8
:1028AC0083C50C00131787009397870033E5A700A7
:1028BC0013860B00B365B700EF00800193578500BA
:1028CC002380AC00A380FC00130C1C006FF0DFFA1B
:1028DC009306F00F3388C64013D7B50033070703B0
:1028EC009357B5009378F501135555001375F503FF
:1028FC00B387C7021307F7073307F70093F7F50100
:10290C00B3870703B388C8029387F7073357D702F7
:10291C00B3871701B3D7D7021317B7003367F70084
:10292C0093D7550093F7F703B38707033306C50214
:10293C009387F707B387C700B3D7D702939757008E
:10294C003365F70013150501135505016780000069
:10295C00630A0500B70700022320F500B707200221
:10296C002322F5006780000063880506130101FE31
:10297C00232C81001384050083A545002328210105
:10298C00130906001306E100232A9100232E1100DF
:10299C0093040500EFF04FD4631405028355E10056
:1029AC001306090013850400EFF08FDA631A050093
:1029BC0083270400032744002322F4002320E4008F
:1029CC008320C101032481018324410103290101D6
:1029DC001301010267800000130580FF678000006F
:1029EC00130101FE232C810013840600B78600001E
:1029FC00B306D500232A91009304070003D70600E1
:102A0C0023225101232E1100938A07002328210130
:102A1C002326310123244101232061019307F03F38
:102A2C0063E6E70813090600B38424039307170031
:102A3C00131757003307E500138B05002390F6009E
:102A4C00130600029305000013050700131414006D
:102A5C00130A08009389080033046401EFE04FE087
:102A6C0033049400930710002322850023262501AC
:102A7C002318550123194501231A3501230EF5009E
:102A8C00130500008320C10103248101832441012B
:102A9C00032901018329C100032A8100832A4100F3
:102AAC00032B010013010102678000001305C0FF16
:102ABC006FF05FFD83C705006396070023000500D8
:102ACC00678000001305150093851500A30FF5FE14
:102ADC006FF05FFE130101FF130741009307000025
:102AEC00130807001306A00093089000B3F6C50264
:102AFC00938717001307170093860603A30FD7FEBF
:102B0C0093860500B3D5C502E3E2D8FE1387070010
:102B1C00930605001307F7FF3306E800034606008B
:102B2C0093861600A38FC6FEE31607FE3305F50049
:102B3C0023000500130101016780000063000522DA
:102B4C00130101F923248106232291052326110662
:102B5C002322910623202107232E3105232C410506
:102B6C00232A510523286105232671052324810579
:102B7C002320A105232EB103930C0500138405001B
:102B8C00130580FF6386051603A70C0037EBF505CC
:102B9C0037890100232CE10003A74C00B75B000030
:102BAC00930A8101232EE10003A78C00130A010272
:102BBC00930981022320E10203A7CC0093040000B7
:102BCC00130BFB0F2322E10203C72C011309F96934
:102BDC00938B0BEC2324E10203C73C01375C000010
:102BEC002326E102832D0A002324210103AD0A00D0
:102BFC006368BB019307803EB3D7FD022324F10029
:102C0C00139564003305A40093850B0063960400B0
:102C1C00B75500009385C5ECEFF0DFE903A609007A
:102C2C00130805006308061013070D006376A9014D
:102C3C00378701001307F769130DA000B355A703DD
:102C4C00130508002326E100EFF0DFE893050CF1F3
:102C5C00EFF05FE60327C100B375A703EFF09FE722
:102C6C00B7570000938547F1EFF0DFE4832581002F
:102C7C00EFF05FE693050CF1EFF0DFE3130740068E
:102C8C00B3D5ED02B3F5A503EFF0DFE4938A4A0068
:102C9C00130A4A0093894900638A040803C74C014C
:102CAC00130504086300070AB7550000938585EDEA
:102CBC00EFF05FE083D50C01EFF0DFE1B7550000DA
:102CCC00938585F3EFF01FDF83C75C0163820708F0
:102CDC00B7550000938585EFEFF0DFDDB7550000A9
:102CEC00938505F41305040CEFF0DFDC13050000ED
:102CFC008320C1060324810683244106032901068F
:102D0C008329C105032A8105832A4105032B01056B
:102D1C00832BC104032C8104832C4104032D010457
:102D2C00832DC10313010107678000009304100079
:102D3C006FF05FEBB7570000938547F2EFF09FD72A
:102D4C006FF0DFF4B7550000938585EE6FF05FF6FA
:102D5C00B7550000938505F06FF01FF8130580FF41
:102D6C0067800000130101EA23244115232E11145E
:102D7C00232C8114232A9114232821152326311561
:102D8C002322511523206115232E7113232C81131B
:102D9C00232A91132328A1132326B113130A80FF8E
:102DAC00630C061EB707E0FF9387F7FFB377F500B8
:102DBC0037070002930C0500130A80FF639EE71C83
:102DCC00138505009305010293040600EFF01FD74D
:102DDC00130A05006312051CB7870000B387F400C3
:102DEC0013041000239087001306000293050000C3
:102DFC0013850400EFE0CFA69307007823A6F40018
:102E0C00B70748009387073C23A8F400B757000086
:102E1C009387C7052322F100B75700009387070E4D
:102E2C0023A29401238E8400930A0102130C000048
:102E3C00130F40002324F100930250009307ECFF82
:102E4C009308F0FF639407009308007E93174C00DF
:102E5C0093875700939707019398080193D707011D
:102E6C0093D808012320F100938D0A00930B4000A6
:102E7C006F0000111309500033092B038327410005
:102E8C0003270100130EFBFB930E0BFD130D00002B
:102E9C00137EFE0F9303900193FEFE0F930F3000F1
:102EAC003303F900832781003309F90063E6C31368
:102EBC000344B3EB93060000B357DF00B3F787006E
:102ECC009389160063860708938906009389190075
:102EDC006388F901B3573F01B3F78700E39807FE06
:102EEC00B387D940B386DB009397170093961600EF
:102EFC00939707019396060193D7070193D6060182
:102F0C00130820001306007893850C001385040029
:102F1C00232ED101232CC101232A61002328110166
:102F2C002326E100EFF0DFAB0327C100832801016A
:102F3C0003234101032E8101832EC10193039001D0
:102F4C00930F3000130F400093025000631E050CCA
:102F5C006398F90D1307270013170701130D1D00B4
:102F6C00135707011303130013091900E3105DF441
:102F7C00938B4B00939B0B01938D1D0093DB0B01EB
:102F8C0003CB0D00E3180BEE130C1C009307400051
:102F9C00938A0A04E314FCEA8320C11503248115E7
:102FAC0083244115032901158329C114832A411453
:102FBC00032B0114832BC113032C8113832C41137A
:102FCC00032D0113832DC11213050A00032A81144A
:102FDC0013010116678000009307900063E6D70188
:102FEC00034409F16FF01FED9307D002631CFB0043
:102FFC009307200013047000E30EFDEA1304000095
:10300C006FF05FEB9307E00213040000E314FBEA9C
:10301C001304CDFF13341400131414006FF09FE944
:10302C00938609006FF05FE9130A05006FF0DFF675
:10303C003787B8EDB305B5009307F0FF13070732D8
:10304C006316B50013C5F7FF6780000083460500C3
:10305C0013051500B3C7D7009306800013D61700CD
:10306C0093F71700B307F040B3F7E7009386F6FF2A
:10307C00B347F600E39406FE6FF09FFC9307050040
:10308C001305F0FF63800714638E051283A60500F9
:10309C0037575341130747356396E61283D685019C
:1030AC00130710006390E61283D6C5011307004086
:1030BC00636AD71083D6E501130730006364D71019
:1030CC00130710042380E70013073005A380E700E3
:1030DC002381E70013074005A381E70003D785018F
:1030EC0013050000935687002382D700A382E700C4
:1030FC0003D7A501935687002383D700A383E7004A
:10310C0003A74500935687012384D70093560701E4
:10311C00A384D700935687002385D700A385E700A7
:10312C0003A78500935687012386D7009356070182
:10313C00A386D700935687002387D700A387E70081
:10314C0003A7C500935687012388D7009356070120
:10315C00A388D700935687002389D700A389E7005B
:10316C0003D7C50193568700238AD700A38AE700AB
:10317C0003D7E50193568700238BD700A38BE70079
:10318C0003A7050193568701238CD700935607019B
:10319C00A38CD70093568700238DD700A38DE7000F
:1031AC0003A7450193568701238ED7009356070139
:1031BC00A38ED70093568700238FD700A38FE700E9
:1031CC006780000067800000930705001305F0FF7F
:1031DC006380050A6382070A03A60500630E0608CE
:1031EC0003A74501630A070883A6450013F83600B8
:1031FC006314080803A8C50093783800639E08067A
:10320C00637CE8063708400263E806073387E6006C
:10321C006362D706B706001063EEE60403A7C71176
:10322C001305E0FF137717006318070423A0C710DA
:10323C0003A7450023A2E71003A7850023A4E710EA
:10324C0003A7C50023A6E71003A7050123A8E710D1
:10325C0003A7450123AAE7100F00F00F1307100076
:10326C0023ACE7100F00F00F13050000678000007F
:10327C00678000001305F0FF6780000093070500CE
:10328C001305F0FF63820706638005060F00F00F3D
:10329C0003A7C7111305C0FF23A0E50083A60712DF
:1032AC0023A2D50083A6471223A4D50083A6871298
:1032BC0023A6D50083A6C71223A8D50083A607137F
:1032CC0023AAD50083A7471323ACF5009377C70037
:1032DC00639C070013772700130500006316070093
:1032EC001305E0FF6780000067800000630805009D
:1032FC0093072000232CF5100F00F00F67800000BF
:10330C008327C51193F71700638E070A130101FE7B
:10331C00232E1100232C8100232A910013840500F5
:10332C002328210123263101232441019309C511AE
:10333C00EFF0DFFBEFE08FDD930740011389050011
:10334C00B305F402930405001306803E93060000B7
:10335C003334F4021385753EB335B500B38585005F
:10336C00EF10400A13840500130A050083A7090017
:10337C0093F7170063840704EFE04FD9B306954029
:10338C003337D500B3872541B387E740E3E087FEA9
:10339C006314F400E3EC46FD1305A0FE8320C10189
:1033AC000324810183244101032901018329C100E4
:1033BC00032A81001301010267800000130500003D
:1033CC006FF0DFFD1305000067800000B70701F800
:1033DC009387470003A707009356070193F6F60F50
:1033EC00E38A06FEB70701F823A0A7006780000058
:1033FC00130101F823263105232AF106B7590000E1
:10340C009307410623282105232441052322510536
:10341C0023206105232E7103232E1104232C8104F8
:10342C00232A9104232C8103232A91032322B106FE
:10343C002324C1062326D1062328E106232C0107C9
:10344C00232E11072326F10013090000938909F795
:10345C00130A5002930A6006130B6006930B300696
:10346C00B307390103C50700631C05028320C1059E
:10347C000324810583244105032901058329C10403
:10348C00032A8104832A4104032B0104832BC103E7
:10349C00032C8103832C4103130101086780000076
:1034AC006318450D13091900B387290183C7070059
:1034BC006380070E63825717636CFB046382770B80
:1034CC00130740066380E70E13078005E39CE7FCB7
:1034DC008327C100B75400001304C00183AC07005C
:1034EC00138747002326E1009384C4D7130CC0FF35
:1034FC00B3D78C0093F7F700B387F40003C507002C
:10350C001304C4FFEFF09FECE31484FF6F0040083A
:10351C00130730076382E70613078007E394E7F885
:10352C008327C100B75400001304C00183AC07000B
:10353C00138747002326E100938404D9130CC0FFA2
:10354C00B3D78C0093F7F700B387F40003C50700DB
:10355C001304C4FFEFF09FE7E31484FF6F004003F4
:10356C008327C10003C50700138747002326E1000A
:10357C00EFF0DFE56F00C0018327C10003A4070053
:10358C00138747002326E10003450400631605005A
:10359C00130919006FF0DFEC13041400EFF01FE3B4
:1035AC006FF09FFE8327C10083A407001387470099
:1035BC002326E10063D804001305D002EFF01FE1CD
:1035CC00B304904013040101130C04001307A00072
:1035DC00639E0400630C84010345F4FF1304F4FFA1
:1035EC00EFF0DFDEE31A84FF6FF09FFAB3E7E4023B
:1035FC001304140093870703B3C4E402A30FF4FE6F
:10360C006FF01FFD13041400EFF05FDC03450400A2
:10361C00E31A05FE6FF0DFF737540000130404D3F0
:10362C006FF0DFFE930705001305C0FE638C0704E3
:10363C00638A0504630806046386060463040704AE
:10364C0083A807203758454E130818431305B0FEBE
:10365C00639A080303A84720130590FE13781800FB
:10366C006312080223A6B7201317070123A8C7204B
:10367C00B366D70023AAD7200F00F00F1305000064
:10368C006780000067800000130101F2232E110CEB
:10369C00232C810C232A910C2328210D2326310D58
:1036AC002324410D2322510D2320610D232E710B58
:1036BC00232C810B232A910B2328A10B2326B10B3E
:1036CC00232AC100232ED100232401036394080470
:1036DC009304C0FE8320C10D0324810D0329010D29
:1036EC008329C10C032A810C832A410C032B010C66
:1036FC00832BC10B032C810B832C410B032D010B52
:10370C00832DC10A138504008324410D1301010E7E
:10371C0067800000130405009389050013068001DF
:10372C009305000013850800930A0700138A07000D
:10373C0013890800EFD0DF92E30C04F8E38A09F850
:10374C0083274101E38607F8E3040AF893F73A006C
:10375C00E39007F8B7074002E3ECFAF6B3874A01A7
:10376C00E3E857F737070010E364F7F60327042064
:10377C00B757454E938717439304B0FEE31CF7F4F9
:10378C00EFE0CF98832741012326A1022328B10221
:10379C002324F1048327C10193058104130504003C
:1037AC00232A0104232C0104232651052328F10488
:1037BC00232E4105EFF05FA193040500631A053633
:1037CC0093074006B385F9021306803E930600006A
:1037DC00130B0000B3B7F9021385753EB335B50072
:1037EC00B385F500EF001042930740012326B1008A
:1037FC00B385F9022322A1021306803E9306000032
:10380C00B3B7F9021385753EB335B500B385F50032
:10381C00EF00503FB757534193874735232CF102A4
:10382C00B707010093871700232AA1022320B102B6
:10383C0023240100232EF10213070040B3076A4131
:10384C002328E1006368F7009397070193D70701DA
:10385C002328F10083270101930B0000338C6701AF
:10386C008327810093871700232CF1008327C41131
:10387C0063980B0093F7D700130710006382E706D9
:10388C009385090013050400EFF09FA7930C050026
:10389C00631205028327810093058104130504003C
:1038AC00232A6105232CF104EFF01F92630A050211
:1038BC00930C90FE9385090013050400EFF05FA4B0
:1038CC0093040500631E052293840C006F004023B3
:1038DC0083278900938717002324F9006FF01FF9C1
:1038EC008327810393050106130501082320F106A4
:1038FC008327410123266107232A01062322F1068F
:10390C008327C1012324F106832781002328F10694
:10391C008327C103232CF10683270101231EF10603
:10392C00B337700193971700231FF10683274900C3
:10393C00938717002322F900EFF04FF46310051062
:10394C00EFD0DFFC130D0500938D050013068000EE
:10395C0083274420930C442093F79700638CC70271
:10396C00EFD0DFFAB306A5413337D500B387B541A5
:10397C00B387E7400327C10013068000E3EAE7FCA6
:10398C006316F70083274102E3E4F6FC930CA0FED8
:10399C006F00000B130701089306042293050424FF
:1039AC0083471700034627009386460093978700AA
:1039BC0013160601B3E7C7000346070013074700B9
:1039CC00B3E7C7000346F7FF13168601B3E7C7003A
:1039DC0023AEF6FEE396D5FC0F00F00F9307100014
:1039EC002324F4200F00F00FEFD05FF2130D05002D
:1039FC00938D050083A70C0013F71700631A0700BB
:103A0C0013F747006312071293F727006396071208
:103A1C00EFD0DFEFB306A5413337D500B387B541FF
:103A2C00B387E7400327C100E3E6E7FCE310F7F6B2
:103A3C0083274102E3E0F6FC6FF05FF5930CC0FEC8
:103A4C00938B1B0093076000E394FBE8638A0C0ADA
:103A5C006FF05FE6636AFC0C832781080327810102
:103A6C006364F70CEFD09FEAB307A541032701026B
:103A7C003335F500B3859541B385A54063E8E50082
:103A8C00E316B7F003274103E3F2E7F093050108CF
:103A9C0013050400EFF08FFE6308B5098327410876
:103AAC00E39A87FB8327810803278101E396E7FAD2
:103ABC008327C41113F7C7006318070633074C415B
:103ACC0093D717001337170093F71700631EF704EB
:103ADC008327810123208901130B0C002324F1007F
:103AEC00E36C4CD5EFD0DFE493050A0013850A0094
:103AFC00EFF00FD483278102930C80FEE39CA7DAAE
:103B0C00EFD0DFE08327C10203270103B307F540A1
:103B1C003335F500B385E540B385A5402328F9007E
:103B2C00232AB9006FF01FBB930C90FE6FF05FF16E
:103B3C00930490FE6FF01FBAEFD05FDD130D0500FC
:103B4C00938C0500930DC0FF6FF05FF4130101FB24
:103B5C0037270000232E3103130707F9938905003B
:103B6C003706A8C0B705A8C0930607001306261091
:103B7C00938535102322910423202105232611043B
:103B8C0023248104232C4103232A5103232861037A
:103B9C002326710323248103232291031309050097
:103BAC00EFF05FA893040500631A05083754000072
:103BBC001304441137EBF505378A0100130C040488
:103BCC00130B0B10130A0A6A930A0000B75C00006F
:103BDC00832B04000328C40083278400032744009C
:103BEC009308810093860B001386090093050B0044
:103BFC0013050900EFF05FA9930405008325C101AB
:103C0C000325810113060A0093860A00EF00807FCA
:103C1C00032701018326C1000326810093070500B9
:103C2C001388040093850B0013850CF7EFF04FFC01
:103C3C006396040013040401E31C84F98320C1047B
:103C4C0003248104032901048329C103032A81036A
:103C5C00832A4103032B0103832BC102032C810212
:103C6C00832C4102138504008324410413010105B4
:103C7C0067800000B757000003A387FD37050100DC
:103C8C00130600009308A000370880021305F58185
:103C9C00370E0100930E0004130F0005B3551603E5
:103CAC001317760033070701930600009395350030
:103CBC0093D73600B387B70093971700B307F30079
:103CCC0083D7070063940700930705002310F700C0
:103CDC0093D716009397B70093E7F70193970701D3
:103CEC00B30FC70193D707012390FF0093861600EB
:103CFC0013072700E39ED6FB13061600E310E6FB22
:103D0C006780000063000722B707E0FF130101FB87
:103D1C009387F7FF232481042322910313040700C4
:103D2C00B377F500232611042322910423202105C7
:103D3C00232E3103232C4103232A5103232861030F
:103D4C0023267103232481032320A103232EB101F5
:103D5C0037070002930C0500130580FF6396E718E4
:103D6C009387C5FF1307C00F938A0500636EF71680
:103D7C0013090600130D1038337DA903930910188D
:103D8C00130600029305000013050400B334D000A1
:103D9C00138B0600EFD0CFACB70740022320F40002
:103DAC00930700782324F4002326F400B7071C02A1
:103DBC009387073C2328F400B72700009387378E9E
:103DCC00231AF4009307500093841400230E9400DC
:103DDC002322940193040402930B00001307103860
:103DEC0093061018930D300013788900B3793903BA
:103DFC00330DFD0293073000B389F902138A0B00CF
:103E0C0013763A00938B1B00370C800233F9D902DE
:103E1C00B375ED021309C904630E0B00370C600275
:103E2C00B377BA0363880700370C61026304080098
:103E3C00370C62026314B601370C81029307003C05
:103E4C003309F902930730003309B900131919002B
:103E5C00330999016314B6019307400013955B0075
:103E6C0013060002930500003305A400232601016C
:103E7C002324F100EFD0CF9E130600088327810086
:103E8C0023A4C4001306007823A6C4001306000460
:103E9C002398C400130600052399C400238EF40054
:103EAC001306F0819307000723A0840123A22401A9
:103EBC00239BC400A38EF4000328C100130D9D089E
:103ECC0093899904938404021307103893061018ED
:103EDC00E3967AF3B72700003304F400130A2A00A0
:103EEC0023204403130500008320C1040324810410
:103EFC0083244104032901048329C103032A810378
:103F0C00832A4103032B0103832BC102032C81025F
:103F1C00832C4102032D0102832DC10113010105E4
:103F2C0067800000130580FF678000006306052092
:103F3C00130101FA232C8104232A9104232E11044A
:103F4C00232821052326310523244105232251054D
:103F5C0023206105232E7103232C8103232A910333
:103F6C001304050093840500130580FF638005147A
:103F7C0037DA0F00B7DA0F00370B1C029309000079
:103F8C00B70B2002370C0002130AFA1F1309007832
:103F9C00938A0A20130B0B3C930C100083274400CC
:103FAC0063FA770D63E4870D370700023386E74029
:103FBC00636ECA0A8326C400639A260B93F7170014
:103FCC006396070AB3752603835824012328E1005E
:103FDC00232A5101232C6101232E21010323840068
:103FEC00035804013356260393D515001316060106
:103FFC0013560601638408089387F8FF3307F3020E
:10400C00B3A6670293171800B307F70033B7E7009E
:10401C003307D700032504008346C4012322F10291
:10402C002320A1022314010323151103232661026B
:10403C00638C960537034002636A6502B307F5008B
:10404C0033B5A7003305E5006312050237070010EE
:10405C00636EF700930730006380F60A9307400005
:10406C00638CF60A93072000638CF606130580FF19
:10407C006F00C003370720026FF05FF39307000057
:10408C00130700006FF01FF98357440113870800D2
:10409C009306080013050101EFE0CFBA6318050081
:1040AC009389190013040402E39A34EF8320C105A9
:1040BC000324810583244105032901058329C104B7
:1040CC00032A8104832A4104032B0104832BC1039B
:1040DC00032C8103832C410313010106678000002C
:1040EC00930700001307000093060102130501015A
:1040FC00EFE04FC36FF09FFA835764011307000082
:10410C00930601022320F10013050101930700001F
:10411C00EFE0CFDC6FF09FF88347D401130700006A
:10412C00930601022320F1001305010193070000FF
:10413C00EFE00FE86FF09FF6130580FF678000003B
:10414C0063080508130101FC232C8102232631038B
:10415C00232E1102232A9102232821031304050084
:10416C0093890500130580FF638605041309060077
:10417C006302060413860600231F0100930400004B
:10418C00939554009306E101B385B900130504001F
:10419C002326C100EFD0DFC2631E050093841400F8
:1041AC000326C100E31E99FC8355E10113050400AD
:1041BC00EFD01FDA8320C10303248103832441033E
:1041CC00032901038329C102130101046780000044
:1041DC00130580FF67800000930705006302050A42
:1041EC0033E8C500130580FF630E0808636AE60810
:1041FC006314C70063E6D50883A807011308D00130
:10420C00130580FF6360180903AE470003A807007D
:10421C001345FEFF1343F8FF6364C5066314A60041
:10422C006360B30603A3C70003A58700934EF3FF97
:10423C00134FF5FF63E6EE046314D7016362DF04EA
:10424C00B305B800B306D50033B80501330ECE0064
:10425C0033B5A6003303E300330565003308C8010A
:10426C009388180023A6A70023A0B70023A2070158
:10427C0023A4D70023A817011305000067800000B2
:10428C00130580FF67800000930705006306050691
:10429C0003260500832645003367D600630E07040A
:1042AC001385050083A507019307D0011387F5FF3C
:1042BC0063E4E704630A05043387A502130101FFD5
:1042CC0023261100B3B5A5021305A000B305B50252
:1042DC003338E5023305E502B3850501EF008012A2
:1042EC00639005029307E0FF63ECA7008320C100F5
:1042FC0013010101678000001305000067800000B6
:10430C001305F0FF6FF09FFE678000009307050018
:10431C006300050E032705019306D0011306F7FF72
:10432C0063E8C60C13850500638C050C3306B702D5
:10433C00130101FE232A21012328310103A987003F
:10434C0083A9C700232C810013050900232E11001B
:10435C00B336B702938509002326C1002324D1006C
:10436C00EF00400A1304050063980508B717000016
:10437C009387670C63E2A7080326C100832681009C
:10438C00130509009385090037490F00EF0080528F
:10439C0013090924B33725030326C10083268100A2
:1043AC00B385250333052503B385F500EF008005A0
:1043BC00B307890213070500333424033305F500D2
:1043CC003337E500B38585003307B7006316070262
:1043DC009307E0FF63E2A7028320C101032481015C
:1043EC0003294101832901011301010267800000A7
:1043FC0013050000678000001305F0FF6FF0DFFD70
:10440C006780000013080600930805001387050059
:10441C006390060E63FEC512B7070100636EF61EAD
:10442C00B7070001930680016374F6009306000140
:10443C003353D60097170000938747D1B387670093
:10444C0083C7070013030002B387D700B306F340FA
:10445C00630CF3003397D500B357F5003318D6002F
:10446C0033E7E700B318D500135608013355C702DC
:10447C009316080193D6060193D708013377C70228
:10448C00B385A60213170701B3E7E70063FCB70077
:10449C00B307F8001307F5FF63E4070163E0B740C7
:1044AC0013050700B387B74033D7C70293980801A9
:1044BC0093D80801B3F7C702B386E60293970701B6
:1044CC00B3E8F80063FED800B30818019307F7FFB0
:1044DC0063E608011307E7FF63E4D80013870700BE
:1044EC00131505013365E500930500006780000096
:1044FC0063F8D500930500001305000067800000E9
:10450C00B707010063E8F61E370700019307800127
:10451C0063F4E6009307000133D8F6001717000088
:10452C001307C7C2330707010347070093080002AC
:10453C003307F7003388E8406396E81E63E4B6322D
:10454C003335C50013351500930500006780000056
:10455C00630C060CB7070100637CF62E13370610AC
:10456C001337170013173700B356E60097170000E0
:10457C009387C7BDB387D70083C707009306000294
:10458C00B387E700B38EF6406394F60CB387C5404F
:10459C0093560601131606011356060193051000D7
:1045AC0033D5D70213D70801B3F7D7023303C502AB
:1045BC0093970701B367F70063FC6700B307F80034
:1045CC001307F5FF63E4070163E4672C1305070089
:1045DC00B387674033D7D7029398080193D8080163
:1045EC00B3F7D7023306C70293970701B3E8F80075
:1045FC0063FEC800B30818019307F7FF63E60801D0
:10460C001307E7FF63E4C8001387070013150501C0
:10461C003365E500678000009336061093B61600EC
:10462C00939636006FF0DFE09306000097170000BA
:10463C009387C7B1B387D70083C707001307000060
:10464C0093060002B387E700B38EF640E380F6F4DE
:10465C003318D60133D3F50093560801335ED302D9
:10466C0013160801B395D50113560601B357F5007F
:10467C00B3E7B70013D70701B318D5013373D302CF
:10468C00B305C6031313030133676700637EB700DA
:10469C003307E8001305FEFF6364071F6372B71E40
:1046AC00130EEEFF330707013307B7403355D7021C
:1046BC009397070193D707013377D7023303A602E9
:1046CC0013170701B3E7E70063FE6700B307F800B1
:1046DC001307F5FF63EE071963FC67181305E5FF75
:1046EC00B387070193150E01B3876740B3E5A500A7
:1046FC006FF01FEB93B7061093B717009397370023
:10470C0033D8F60017170000130747A43307070127
:10471C0003470700930800023307F7003388E8408B
:10472C00E38EE8E0335EE600B3960601336EDE00FE
:10473C00B3D8E500935E0E01B3D7D80313130E0163
:10474C00B3950501135303013357E5003367B700E5
:10475C009356070133160601B3F8D803B305F302D9
:10476C0093980801B3E6160163FEB600B306DE00AB
:10477C009388F7FF63EAC61163F8B6109387E7FFD7
:10478C00B386C601B386B640B3D5D603131707015B
:10479C0013570701B3F6D603B308B3029396060179
:1047AC003367D700637E17013307EE009386F5FF5E
:1047BC006364C70D6372170D9385E5FF3307C7015B
:1047CC0093970701B70E0100B3E7B7009386FEFF7E
:1047DC00B3F5D70013D30701B376D60013560601F1
:1047EC00338ED50233071741B306D30293580E010B
:1047FC00B385C502B385D500B385B8003303C302B6
:10480C0063F4D5003303D30193D60501B386660058
:10481C00636AD7026308D70013850700930500006D
:10482C0067800000B70601009386F6FF33F7D500CA
:10483C0013170701337EDE00331505013307C7015B
:10484C00E37CE5FC1385F7FF93050000678000000F
:10485C00B7070001637AF6049356060113070001AB
:10486C006FF0DFD093050000130510006780000087
:10487C00130507006FF01FE7938506006FF05FF4D8
:10488C00130E05006FF05FE2938708006FF09FEF47
:10489C001305E5FFB38707016FF09FD31305E5FF01
:1048AC00B38707016FF01FC0935686011307800171
:1048BC006FF0DFCB13080600930805009387050003
:1048CC00138705006398060C63FAC512B70701003D
:1048DC00636CF61CB7070001930680016374F60045
:1048EC00930600013353D600971700009387078671
:1048FC00B387670083C7070013030002B387D70091
:10490C00B306F340630CF3003397D500B357F500AF
:10491C003318D60033E7E700B318D50093550801D8
:10492C003356B702131308011353030193D708012D
:10493C003377B7023306660213170701B3E7E700B4
:10494C0063F8C700B307F80063E4070163E2C73CF0
:10495C00B387C74033D7B702139508011355050128
:10496C00B3F7B70233076702939707013365F50076
:10497C00637AE5003305A800636605016374E500FE
:10498C00330505013305E5403355D500930500008B
:10499C006780000063F4D5006780000037070100D2
:1049AC0063E6E61C370700011308800163F4E60098
:1049BC001308000133D3060117070000130707790A
:1049CC00330767000347070013030002330707018F
:1049DC003308E3406314E31C63E4B600636AC50068
:1049EC00B308C540B386D540B3371501B387F6403D
:1049FC00138508009385070067800000630E060A84
:104A0C00B70701006374F62E13370610133717001F
:104A1C0013173700B356E600970700009387077308
:104A2C00B387D70083C7070013030002B387E700DF
:104A3C00B306F3406316F30A3387C54013530601DC
:104A4C001316060113560601B355670293D70801D6
:104A5C0033776702B385C50213170701B3E7E70085
:104A6C0063FAB700B307F80063E6070163F4B70015
:104A7C00B3870701B387B74033D767029398080110
:104A8C0093D80801B3F767023307C70213950701E0
:104A9C0033E5A800E360E5EE3305E5403355D5007A
:104AAC0093050000678000009336061093B616003D
:104ABC00939636006FF01FE39306000097070000F3
:104ACC009387C768B387D70083C707001307000015
:104ADC0013030002B387E700B306F340E30EF3F4CD
:104AEC003318D60033DEF50013530801B35E6E02A3
:104AFC0013160801B395D5003357F500135606016C
:104B0C003367B70093570701B318D500337E6E0295
:104B1C00B385CE02131E0E01B3E7C70163FAB700CB
:104B2C00B307F80063E6070163F4B700B387070126
:104B3C00B387B740B3D567021317070113570701A3
:104B4C00B3F76702B385C502939707013367F70084
:104B5C00637AB7003307E800636607016374B70034
:104B6C00330707013307B7406FF01FEE13B8061079
:104B7C00133818001318380033D306011707000038
:104B8C001307C75C330767000347070013030002D2
:104B9C00330707013308E340E300E3E4B39606016F
:104BAC00B358E600B3E8D80033DEE50013DF0801A4
:104BBC00B357EE03939E080193DE0E01B356E50046
:104BCC0033130501B3950501B3E5B60093D6050182
:104BDC0033160601337EEE033385FE02131E0E01DF
:104BEC00B3E6C60163FEA600B386D800138EF7FFAA
:104BFC0063EC161163FAA6109387E7FFB3861601D0
:104C0C00B386A64033D5E6039395050193D50501EC
:104C1C00B3F6E603B38EAE0293960601B3E5D50068
:104C2C0063FED501B385B8009306F5FF63EA150D55
:104C3C0063F8D50D1305E5FFB385150193960701B0
:104C4C00B7020100B3E6A6001385F2FF33FEA600FF
:104C5C00935F060193D606013375A600330FAE029F
:104C6C00B385D5413385A60293570F01330EFE034E
:104C7C00330EAE00B387C701B386F60363F4A70007
:104C8C00B3865600B70E0100938EFEFF33F5D701A5
:104C9C0013DE070113150501337FDF01B307DE00B7
:104CAC003305E50163E8F5026384F5023305A3409F
:104CBC003333A300B385F540B38565403397E500E6
:104CCC00335505013365A700B3D505016780000096
:104CDC00E37EA3FC3306C5403335C500B30815018C
:104CEC00B3871741130506006FF05FFCB70700018F
:104CFC006374F60293560601130700016FF0DFD1BF
:104D0C00138506006FF09FF393070E006FF05FEFB3
:104D1C00B38707016FF0DFC3935686011307800139
:044D2C006FF09FCFB6
:104D30003C466C6F6174696E6720706F696E742099
:104D40007072696E74696E67206E6F7420656E6133
:104D5000626C652E20506C6561736520456E6162E2
:104D60006C65206974206174206273702E682066FF
:104D7000697273742E2E2E3E0000000030313233E3
:104D80003435363738394142434445460000000047
:104D900030313233343536373839616263646566B1
:104DA0000000000047505500435055004750552023
:104DB000756E617661696C61626C653A2025640D7F
:104DC0000A000000563220636F6D70617269736F64
:104DD0006E3A20434C494E5420487A3D2564206E5B
:104DE0006574776F726B5F726573756C743D256463
:104DF0003B204B455931206C657373204B4559322C
:104E0000206D6F72650D0A004750555F3330302CAE
:104E10006E3D25642C6672616D65733D3330302CB8
:104E200070355F6670733D25642C756E64657266BF
:104E30006C6F77733D25642C6572726F72733D25BC
:104E4000642C7175616C69666965645F3630667083
:104E5000733D25640D0A0000504552462C6D6F6469
:104E6000653D25732C6E3D25642C6672616D6573FE
:104E70003D25642C6670735F7831303D25642C725B
:104E8000656E6465725F75733D25640D0A000000F0
:104E9000563220636F6D70617269736F6E20737428
:104EA0006F707065643A20726573756C743D25642B
:104EB0002068617264776172653D25640D0A0000A7
:104EC00047505520465053200000000043505520C5
:104ED00046505320000000004D4F44452047505598
:104EE00020204E20000000004D4F444520435055E7
:104EF00020204E200000000052454144590000008F
:104F00004641494C2046414C4C4241434B00000035
:104F10002E000000202052454E444552204D532083
:104F2000000000002D2D202052454E444552204DBA
:104F300053202D2D0000000020204E45542000005D
:104F40004B455931204C455353204B455932204D48
:104F50004F524520203330204652414D4520465087
:104F60005320574954482050524553454E54000051
:104F700041535345542C69643D25642C6279746512
:104F8000733D25642C72657175657374733D25647A
:104F90002C726574726965733D25642C6D733D25B3
:104FA000642C726573756C743D25640D0A000000F5
:104FB0001000000020000000400000006000000021
:104FC00080000000C000000000010000000040025E
:104FD0000800080010000000DC4F00000000000086
:104FE000E007E007E007E007000000000000E0073E
:104FF000FFFFE007E007FFFFE0070000E007FFFF1B
:10500000FFFFE007E007FFFFFFFFE007E007E00723
:10501000E007FFFFFFFFE007E007E007E007E0072A
:10502000FFFFFFFFFFFFFFFFE007E0070000E007D3
:10503000E007FFFFFFFFE007E007000000000000BF
:10504000E007E007E007E0070000000000000000C4
:105050001F00000000001F000000000002050705FF
:1050600005060506050603040404030605050506F2
:1050700007040604070704060404030405050305E2
:1050800005070505070202020701010105020505E2
:1050900006050504040404070507070505050707B9
:1050A00007050205050502060506040402050503B9
:1050B00001060506050503040201060702020202B5
:1050C000050505050705050505020505070705058D
:1050D000050205050505020202070102040700009A
:1050E000070505050702060202070701070407076F
:1050F0000107010705050701010704070107070468
:10510000070507070101010107050705070705074F
:1051100001070000010000000000400200D20F0063
:10512000E262F115020000000000600200280000A9
:105130003B68D4A4030000000000610200280000C6
:10514000A786CF580400000000006202002800007B
:1051500037C60A1700010202030303030404040410
:1051600004040404050505050505050505050505F3
:1051700005050505060606060606060606060606D3
:1051800006060606060606060606060606060606BF
:1051900006060606070707070707070707070707A3
:1051A000070707070707070707070707070707078F
:1051B000070707070707070707070707070707077F
:1051C000070707070707070707070707070707076F
:1051D0000707070708080808080808080808080853
:1051E000080808080808080808080808080808083F
:1051F000080808080808080808080808080808082F
:10520000080808080808080808080808080808081E
:10521000080808080808080808080808080808080E
:1052200008080808080808080808080808080808FE
:1052300008080808080808080808080808080808EE
:1052400008080808080808080808080808080808DE
:10525000080808080000000000000000000000002E
:0252600000004C
:0400000300001000E9
:00000001FF
