:101000009741000093818108178100001301818BB3
:10101000173500001305C523973500009385452338
:10102000174600001306468863FCC50083220500AE
:1010300023A055001305450093854500E3E8C5FE50
:101040001745000013054586977500009385858731
:101050006378B5002320050013054500E36CB5FE59
:0C106000EF00C0286F0000006780000057
:10106C001303F00013070500637EC3029377F700A8
:10107C006390070A63920508937606FF1376F600D1
:10108C00B386E6002320B7002322B7002324B70041
:10109C002326B70013070701E366D7FE6314060087
:1010AC0067800000B306C3409396260097020000A9
:1010BC00B38656006780C6002307B700A306B700A7
:1010CC002306B700A305B7002305B700A304B70098
:1010DC002304B700A303B7002303B700A302B70090
:1010EC002302B700A301B7002301B700A300B70088
:1010FC002300B7006780000093F5F50F93968500E9
:10110C00B3E5D50093960501B3E5D5006FF0DFF696
:10111C009396270097020000B38656009382000036
:10112C00E78006FA93800200938707FF3307F740A6
:10113C003306F600E378C3F66FF0DFF3B3C7A50010
:10114C0093F73700B308C500639407069307300084
:10115C0063F0C7069377350013070500639A0706FB
:10116C0013F6C8FFB306E6409307000263CED70818
:10117C0093860500930707006378C70203A806004F
:10118C00938747009386460023AE07FFE3E8C7FE2C
:10119C009307F6FFB387E74093F7C7FF93874700A2
:1011AC003307F700B385F50063681701678000000B
:1011BC00130705006378150583C70500130717008F
:1011CC0093851500A30FF7FEE398E8FE67800000F7
:1011DC0083C605001307170093773700A30FD7FEBC
:1011EC0093851500E38E07F683C6050013071700D9
:1011FC0093773700A30FD7FE93851500E39A07FC6E
:10120C006FF01FF667800000130101FF2326810099
:10121C001304000283A3050083A2450083AF85005D
:10122C0003AFC50083AE050103AE450103A38501E1
:10123C0003A8C50183A6050213074702B307E640BE
:10124C00232E77FC232057FE2322F7FF2324E7FFCE
:10125C002326D7FF2328C7FF232A67FE232C07FF4B
:10126C00232ED7FE93854502E346F4FA93860500B8
:10127C00930707006378C70203A80600938747000B
:10128C009386460023AE07FFE3E8C7FE9307F6FFFD
:10129C00B387E74093F7C7FF938747003307F700FF
:1012AC00B385F500636817010324C1001301010124
:1012BC006780000083C7050013071700938515008E
:1012CC00A30FF7FEE382E8FE83C7050013071700A0
:1012DC0093851500A30FF7FEE39EE8FC6FF0DFFC8F
:1012EC00130101BA232E1144232C8144232A914447
:1012FC0023282145232631452324414523225145CA
:10130C0023206145232E7143232C8143232A9143AF
:10131C002328A1432326B143B70701F81307B006CE
:10132C0023A4E700B70701F81307700023A6E70012
:10133C00B70510F813058106EF009046630C050401
:10134C0093050500374500001305052CEF00006AD6
:10135C00130410008320C1451305040003248145A8
:10136C0083244145032901458329C144032A81442F
:10137C00832A4144032B0144832BC143032C814317
:10138C00832C4143032D0143832DC142130101469C
:10139C00678000009305000E37054002EF101049DE
:1013AC009307000EE316F5FA1387C1819386018229
:1013BC00138641829305003037050006EF1010505C
:1013CC00E31805F8EF00D00713058104EF10D0697E
:1013DC001305C11CEF204037930981121306000A34
:1013EC009305000013850900EFF09FC7B774000048
:1013FC009386848313060000B70500021305C11CF5
:10140C00EF20C061E31605F4376900009306491F0D
:10141C0013061000B70520021305C11CEF20006055
:10142C00E31805F2938784831307491F83D7076456
:10143C0083560764E39EF6F083A7C1812324310110
:10144C003797980093972700930900082322F100FF
:10145C0023203101B768090037082002B7070002C2
:10146C00130707681306491F9385848313058106A8
:10147C00EF10C07CE31E05EC13050105EF10D05EE8
:10148C003796980013060668930501051305810627
:10149C00EF10105FE31E05EA3796980013060668F6
:1014AC009305010513058106EF10905DE31205EA23
:1014BC0013060006930500001305010CEFF05FBA4C
:1014CC0083A7C181930681031306010C9397270010
:1014DC009305000013058106232031132322F112FA
:1014EC00232C0102232E0102EF008076E31205E685
:1014FC009306C1031306010F930510001305810613
:10150C00EF000075E31605E483278103232AF1001D
:10151C00032741018327C103E31CF7E21305010CE8
:10152C00EF10C06DE31605E2930600001306006091
:10153C009305001013058106EF100000E31A05E077
:10154C0013058106EF108004E31405E0EF00006D35
:10155C009304050013840500130600049305000092
:10156C0013050108EFF0DFAF93070000B75D000033
:10157C002320F10413870D21B71700001308000076
:10158C00375D0000B307F70023220105130A0D8B0A
:10159C0013090000130B00009309C003377C0000F3
:1015AC002322F102B75701F883A5070013060001A7
:1015BC001305C11C93C5F5FF93F57500EF200025AD
:1015CC00EF00C0651306B0043356C9022320B102E4
:1015DC008325C104933A6909232EA1009306CCE715
:1015EC001305C11C93CA1A0013761600EF20004392
:1015FC0063120528B79698009386066813860A002E
:10160C009305CCE713058106EF20806A6314052649
:10161C001307703E93870900637437019307703E7C
:10162C00231CF104B77700009387C7E783D727649F
:10163C001307703E231DF10493070B0063746701BD
:10164C009307703E231EF1048347C1070327C10A89
:10165C00231FF1048327810A631607001307703ECA
:10166C006374F7009307703E2310F1068347B107AC
:10167C000327410A2311F1068327010A6316070089
:10168C001307703E6374F7009307703E0325C10483
:10169C002312F106B7570000938707211307810522
:1016AC009306800013068000930500502303510716
:1016BC00A3035107EF109051631E051A379698003B
:1016CC00231B0102938A0D21930C0000130606685C
:1016DC00930B50098327410203D707FE63E4EC1EEA
:1016EC009307500963F02703630E070083556103CA
:1016FC00379698001306066813058106EF005059BB
:10170C00631A0516EF00805137969800930A05006E
:10171C00232CB1001306066893058104130581067A
:10172C00EF10103663180514930501081305810694
:10173C00EF00106963100514EF00404E330695401E
:10174C00B337C500B3868540B386F640B367D60081
:10175C00930B0500938C05006380070637E5F505B0
:10176C0013050510930500002326C1022324D10282
:10177C00EF2000628327C1010327010293090500B2
:10178C003385FA4083278101B3BAAA000326C1022C
:10179C00B387E740B38757411307803EB335A702A1
:1017AC0083268102B307F7023305A702B385B7007E
:1017BC00EF20005E130B05000325810A8325C10A67
:1017CC00B77700009387C7E71306010403D4276497
:1017DC00EF10C0328347B107B70601001387090029
:1017EC00B337F00063E4D9001387F6FF2313FA0034
:1017FC002310EA0023118A002312AA0013091900EE
:10180C009307C012130A8A006314F90413068105A6
:10181C009305C01213050D8B232C0104232E0104F8
:10182C0023200106EF1040170356A10583558105AF
:10183C0013040500630C050C032701068326C10560
:10184C003745000013054534EF00401A6FF05FB0C8
:10185C00930760096312F9069306100013060060E3
:10186C009305001013058106EF00104D630005026F
:10187C00130510000346B10793050500374500001A
:10188C001305C52FEF0080166FF09FAC1305810672
:10189C00EF00D04FE31E05FC130600049305000077
:1018AC0013050108EFF0CFFB9307000013080000AD
:1018BC002320F1042322010593840B0013840C00D4
:1018CC006FF05FCE9306610393850A0013058106C2
:1018DC00232CC100EF00D022E31E05F80326810162
:1018EC0063F82B01938C1C00938A0A026FF09FDE25
:1018FC008355610313058106232CC100EF00503979
:10190C0003268101E30005FE6FF0DFF6E30606F225
:10191C003745000013054538EF00400D0327810FB4
:10192C00832601100326810C8325010D3745000009
:10193C001305053DEF00800B832701108325010D56
:10194C000326810F37450000B385F5408327810CB2
:10195C00130505423306F640EF0040098327410189
:10196C00032781118326810E032601108325010D87
:10197C003745000013058545EF00400703A701829A
:10198C0083A6418283A5C181374500001317270028
:10199C009396260013060008939525001305854C95
:1019AC00EF00C0048327811B032781168326811235
:1019BC000326811783258113374500001305C55075
:1019CC00EF00C0026FF01F99B70701F8938747002B
:1019DC0003A707009356070193F6F60FE38A06FE5A
:1019EC00B70701F823A0A70067800000130101F8D6
:1019FC00232AF106930741062328210523263105C6
:101A0C00232441052322510523206105232E710334
:101A1C00232E1104232C8104232A9104232C8103CB
:101A2C00232A9103930905002322B1062324C1061E
:101A3C002326D1062328E106232C0107232E110788
:101A4C002326F10013090000130A5002930A6006C2
:101A5C00130B6006930B3006B387290103C50700EF
:101A6C00631C05028320C1050324810583244105E1
:101A7C00032901058329C104032A8104832A410413
:101A8C00032B0104832BC103032C8103832C4103FF
:101A9C0013010108678000006318450D1309190034
:101AAC00B387290183C707006380070E638257172A
:101ABC00636CFB046382770B130740066380E70EAD
:101ACC0013078005E39CE7FC8327C100B7440000A3
:101ADC001304C00183AC0700138747002326E100E1
:101AEC0093848429130CC0FFB3D78C0093F7F700B1
:101AFC00B387F40003C507001304C4FFEFF0DFEC59
:101B0C00E31484FF6F004008130730076382E70675
:101B1C0013078007E394E7F88327C100B74400005C
:101B2C001304C00183AC0700138747002326E10090
:101B3C009384C42A130CC0FFB3D78C0093F7F7001F
:101B4C00B387F40003C507001304C4FFEFF0DFE70D
:101B5C00E31484FF6F0040038327C10003C5070013
:101B6C00138747002326E100EFF01FE66F00C0014A
:101B7C008327C10003A40700138747002326E10035
:101B8C000345040063160500130919006FF0DFEC20
:101B9C0013041400EFF05FE36FF09FFE8327C10086
:101BAC0083A40700138747002326E10063D80400B1
:101BBC001305D002EFF05FE1B30490401304010170
:101BCC00130C04001307A000639E0400630C840133
:101BDC000345F4FF1304F4FFEFF01FDFE31A84FF57
:101BEC006FF09FFAB3E7E402130414009387070322
:101BFC00B3C4E402A30FF4FE6FF01FFD1304140032
:101C0C00EFF09FDC03450400E31A05FE6FF0DFF7ED
:101C1C00374400001304C4246FF0DFFEB7C7B0F8DC
:101C2C0037C7B0F89387C7FF130787FF83A5070053
:101C3C000325070083A60700E39AD5FE6780000002
:101C4C000F00F00F0F5000000F00F00F6780000026
:101C5C00130101D12320212F1309050013050101C4
:101C6C002326112E2324812E2322912E13040600C9
:101C7C00938405002326712D232E312D938B060082
:101C8C00232C412D232A512D2328612D2324812DF2
:101C9C002322912D2320A12D232EB12BEF10C05CDC
:101CAC001305C105EF10502A93860400130600603B
:101CBC009305001013050900EF00100893070500A9
:101CCC006310051813050900EF00500C930705006D
:101CDC0063180516EFF09FF4B7A41C81379B98008E
:101CEC0093090500138C0500938454DC130A00003F
:101CFC00130D1001930DB004B77A0000130B0B6891
:101D0C00930CC012B377AA0393750A04B335B000D1
:101D1C00938515006394070093E5450013060001B5
:101D2C001305C105EF10902E3356BA0383254101DC
:101D3C009386CAE71305C10513761600EF10104EF3
:101D4C0093070500631E050E9387CAE783D50764C6
:101D5C00138604001385CAE7EF00D05F93040500D7
:101D6C0093060B00130610009385CAE713050900B0
:101D7C00EF101074930705006314050C13060B0089
:101D8C009305010113050900EF10804F930705001F
:101D9C006318050A130A1A00E3169AF7EFF05FEAC4
:101DAC009305810113050900EF00900193070500CD
:101DBC00631805082326A100EFF09FE8EFF01FE65B
:101DCC00B3093541338B8541333535010326010584
:101DDC0083264105330BAB4003250101B765090090
:101DEC00032D8103832DC103032C0104832C410497
:101DFC00032A8104832AC1042320C1002322D10099
:101E0C00EF00107B03260100832641008327C100CD
:101E1C0023203401232264012324A4012326B401AA
:101E2C0023288401232A9401232C4401232E5401BA
:101E3C002320C4022322D4022324A40223A09B0027
:101E4C008320C12E0324812E8324412E0329012EAD
:101E5C008329C12D032A812D832A412D032B012D8A
:101E6C00832BC12C032C812C832C412C032D012C76
:101E7C00832DC12B138507001301012F67800000F0
:101E8C0003270500930705001305300013084703CB
:101E9C001307870383250800032607008326080001
:101EAC009395050193D505019396060193D60601EA
:101EBC00639CD50283D6C7001376F60FB386D54044
:101ECC009396060193D606016388060403C727017F
:101EDC001305A0FF6360D702A389C700630E060039
:101EEC00130590FF678000001305F5FFE31405FA56
:101EFC001305A0FF678000003307D7401377F70F57
:101F0C002389E7003337E0002396B700A388E70066
:101F1C001305000067800000A389C700E30A06FED2
:101F2C006FF01FFC13070500130520006304060661
:101F3C0063860606B367B70093F7170013053000E6
:101F4C00639E0704131616001305400063E8C504CE
:101F5C009386F6FFB387B60213055000B3B6B602EC
:101F6C003386C700B337F600B387D700B306E60055
:101F7C0033B6C6003306F600B70700026360F702FB
:101F8C00631C0600B707001063E8D70013050000B8
:101F9C006780000067800000130550006780000018
:101FAC006302050A130101FF23229100232611006D
:101FBC002324810013F7350093840500930780FFD9
:101FCC006316070613068001930500001304050031
:101FDC00EFF00F8983A60400374744322320940086
:101FEC00130707759307F0FF6392E60483A644007A
:101FFC00370701009307E0FF639AE60283A74403C7
:10200C009397070193D707012316F40093871700C2
:10201C009397070193D707012315F4002314F400B9
:10202C00930710002308F400930700008320C100DD
:10203C00032481008324410013850700130101014F
:10204C0067800000930780FF1385070067800000FE
:10205C006304052A130101FD232291022326110298
:10206C002324810223202103232E3101232C41011F
:10207C00232A510123286101232671012324810184
:10208C00232291018347050193040500130580FF6A
:10209C006380070493090600630C06021384050091
:1020AC006388050283D785016394070283CBC5013E
:1020BC00930710006398FB04835624010356040114
:1020CC008325C40003254400EFF0DFE5630E05040F
:1020DC008320C102032481028324410203290102CB
:1020EC008329C101032A8101832A4101032B0101A8
:1020FC00832BC100032C8100832C410013010103AD
:10210C0067800000930760006390FB1083A7450075
:10211C003707E0FF1307F7FFB3F7E70037070002B5
:10212C0013055000E396E7FA83A70400130590FF0C
:10213C0003A787031377F70FA389E400E31A07F8C3
:10214C0003A7870003C644019376F7016374D60096
:10215C00238AD400137707041305C0FFE31A07F68C
:10216C0083C624011307F000E364D7F603D7A40059
:10217C00930617002395D40023A877018326040027
:10218C0023AAD7008326440023ACD700832604015E
:10219C0023AED7008326840023A0D7028326C40055
:1021AC0023A2D7028326440123A4D7028346D40159
:1021BC0023A6D70223A8E7020F00F00F83A7040081
:1021CC009306100023A6D7000F00F00F83A744003E
:1021DC00A388D40083C644019387170023A2F4007C
:1021EC0083C724012397E4009387170093F7F70F15
:1021FC002389F40063F4F600238AF4002390E900A9
:10220C00130500006FF0DFEC930750006398FB029E
:10221C0083A705001305300013F73700E31A07EA0C
:10222C00370700FEB387E7003707000E1307C7FF19
:10223C0013055000E372F7E86FF09FE99387EBFF0B
:10224C0093F7F70F1307200013051000E362F7E86C
:10225C0003AC050003D9050103DA250103AB8500A6
:10226C001306090093060A0093050B0013050C00D6
:10227C00EFF05FCBE31E05E4832C4400832AC400FB
:10228C0093060A001306090093850A0013850C00B7
:10229C00EFF05FC9E31E05E29306FAFFB38756031E
:1022AC00131919003307990133362701B3BA5603B2
:1022BC003387E700B337F700B38ACA00B3875701F7
:1022CC0063940700E372ECE6B387660333092C01D1
:1022DC00333C8901B3B6660333892701B337F90060
:1022EC00B3868601B387D70063940700E3FE2CE323
:1022FC00130560006FF0DFDD130580FF67800000C1
:10230C00130101FE232C8100232A91002328210193
:10231C002326310123244101232E110093040500AF
:10232C00138905001304060093890600130AC0FFE5
:10233C00138609009305090013850400EFF05FD1A3
:10234C00631C4501630A040213850400EFF05FB3BC
:10235C001304F4FFE30E05FC8320C1010324810167
:10236C0083244101032901018329C100032A81002F
:10237C0013010102678000001305B0FF6FF0DFFD51
:10238C0063080508130101FF232481002326110093
:10239C00232291008347050113040500130580FFD8
:1023AC00638E0704032744001305A0FF630807048A
:1023BC00B70601008357840093840500637AD70025
:1023CC00B387F5409397070193D7070163F8E702AA
:1023DC0013050400EFF0DFAA631205028347240102
:1023EC00638E07000357A4003387E740B384E400EF
:1023FC009394040193D4040133B5F4008320C100F9
:10240C000324810083244100130101016780000033
:10241C00130580FF67800000130101FD2324810256
:10242C0023229102232021031304050013890500A4
:10243C009304060093050000130600021305010027
:10244C0023261102EFE0DFC1930720002326F100C1
:10245C00B7070100938717002328F10013860400A7
:10246C00930760009305010013050400232221014A
:10247C00230EF100EFF0DFBD8320C10203248102A3
:10248C008324410203290102130101036780000028
:10249C006300050A130101FE232C8100232E110079
:1024AC00232A91002328210123263101834705018A
:1024BC0013040500130580FF638A070203274400F9
:1024CC001305A0FF63040702B706010083578400BD
:1024DC0013890500930406006378D704B387F5408D
:1024EC009397070193D7070163E0E7048320C101A9
:1024FC000324810183244101032901018329C100A3
:10250C001301010267800000930509001305040004
:10251C00EFF01FE79384F4FFE31A35FDE39604FE16
:10252C001305B0FF6FF09FFC930910006FF01FFFB5
:10253C00130580FF67800000930705006304050402
:10254C0003470501130580FF6300070463FEC50202
:10255C0037170000637AE602130710006366D70290
:10256C0083A7070013160601B365B6009396F60110
:10257C00B3E5D50023A4B7040F00F00F130500003A
:10258C0067800000130580FF67800000930705003B
:10259C006304050203470501130580FF630007026E
:1025AC0083A707001307200023A6E7040F00F00FF2
:1025BC001305000067800000130580FF6780000092
:1025CC00930705006308050A03470501130580FFFF
:1025DC006304070A6382050A03A707009306100029
:1025EC002326D7040F00F00F83A707001305000064
:1025FC0083A6070503A7470523A0D50023A2E50062
:10260C0083A6870503A7C70523A4D50023A6E50049
:10261C0083A6070603A7470623A8D50023AAE5002F
:10262C0083A6870603A7C70623ACD50023AEE50017
:10263C0083A6070703A7470723A0D50223A2E50219
:10264C0083A6870703A7C70723A4D50223A6E50201
:10265C0083A6070803A7470823A8D50223AAE502E7
:10266C0003A7870883A7C70823ACE50223AEF502AE
:10267C0067800000130580FF67800000930625002B
:10268C00130710006364B70293075000B385F5027B
:10269C009307400693853506B3D5F502939515003F
:1026AC003305B5000355E5FF6780000003D806002D
:1026BC0013860600930707008358E6FF637A180118
:1026CC00231016019387F7FF1306E6FFE39607FE28
:1026DC0093971700B307F500239007011307170012
:1026EC00938626006FF01FFA130101FC232A910236
:1026FC00232E1102232C81022328210323263103AC
:10270C00232441032322510323206103232E71012F
:10271C00232C8101232A9101930480FF6302050E6F
:10272C00938C0500930480FF638C050C130C06003E
:10273C006308060C138407006384070C93071000CE
:10274C009389060063EED70A13090500130680016E
:10275C009305000013050400930A0700EFE05F9057
:10276C002324840183472901130B0000230AF90059
:10277C00EFF00FCDEFF08FCA130A0500938B050015
:10278C002317010093155B009306E10013860A00E2
:10279C00B385BC0013050900EFF09FB69304050048
:1027AC0063100506638A0908130B1B00E31C6CFD00
:1027BC00930710006386F90AEFF08FC8EFF00FC68D
:1027CC00330A454133354501B3857541B385A54081
:1027DC002322B40023204401834749011305803E82
:1027EC0013060B002318F4008327C4009306000083
:1027FC00B335F5023305F502EF1080592319A40007
:10280C008320C10303248103032901038329C1020B
:10281C00032A8102832A4102032B0102832BC1016B
:10282C00032C8101832C4101138504008324410373
:10283C0013010104678000008327C4008355E10065
:10284C0013860A00938717002326F400130509004A
:10285C00EFF01FC4E30A05F4930405006FF05FFA70
:10286C008355E1002326340113860A001305090061
:10287C00EFF01FC2E30205F46FF01FFE130101FB22
:10288C00232481042322910423202105232E3103A8
:10289C00232C4103232A5103232481032322910354
:1028AC002320A1032326110423286103232671036B
:1028BC0093040500138C0500930C0600138D060081
:1028CC0093090700138A0700930A0800138908006C
:1028DC00EFF0DFCB1304050063120508EFF04FB6E1
:1028EC00EFF0CFB3930B0500138B0500930781001A
:1028FC0013070D009306100013860C0093050C00B3
:10290C0013850400EFF05FDE130405006318050463
:10291C00EFF00FB3EFF08FB0B3077541B336F5009E
:10292C00B3856541B386D5402320F9002322D90015
:10293C0093850A0013850400EFF09FC8130405006B
:10294C00631E0500EFF0CFAF93050A001385090055
:10295C00EF0000468327010523A0A7008320C104B4
:10296C001305040003248104832441040329010476
:10297C008329C103032A8103832A4103032B010307
:10298C00832BC102032C8102832C4102032D0102F3
:10299C001301010567800000630E0514130101B2D9
:1029AC00232C814C232A914C232E114C2328214D6E
:1029BC002326314D2324414D2322514D2320614D9B
:1029CC00232E714B9304050013040600130580FF9E
:1029DC00630E06069307C012639AF50637190000BA
:1029EC001307010013090996232006002322060071
:1029FC00232406003389240193870400130A000062
:102A0C00930900001305070083D6070093878700FE
:102A1C0013072700231FD7FE83D6C7FFB389D9001E
:102A2C0083D6E7FF330ADA00E39027FF2322340131
:102A3C00232444019305C012EFF05FC42310A400BB
:102A4C009307B00363EAA702130500008320C14D6E
:102A5C000324814D8324414D0329014D8329C14C0D
:102A6C00032A814C832A414C032B014C832BC14BF1
:102A7C001301014E67800000B3E94901E39609FC9C
:102A8C00B717000093872796138A2400B389F400A4
:102A9C00130BD001930BB003835A0A008357240005
:102AAC0063F45705938704009305000003D72700B0
:102ABC00636E57011397150083D607001307074B56
:102ACC00330727002314D7DA9385150093878700E3
:102ADC00E39E27FD637ABB0013058125EFF01FBA37
:102AEC0063F4AB0023115401130A8A00E3163AFB7A
:102AFC006FF09FF5130580FF6780000063020604EA
:102B0C00032746008327060063ECE5026314B70035
:102B1C006368F502B307F540B336F5003387E5403B
:102B2C002320A6002322B6006310D702370701002A
:102B3C0063FCE7001395070113550501678000003E
:102B4C001305000067800000370501001305F5FF31
:102B5C006780000093070500630E0500130506004F
:102B6C009306000037060001130636196398B60069
:102B7C00678000001305000067800000130101FE50
:102B8C0003C7C70103C8D7012320E10003A707002F
:102B9C002322E10003A747002324E10003A78700B9
:102BAC002326E10003A7C7002328E10003A70701A0
:102BBC00232AE10003A74701232CE10003D7870157
:102BCC001317070133670701232EE10013070100D8
:102BDC0003280700130747003345050113080102BA
:102BEC003305C502E31607FF938616009387070289
:102BFC00E398B6F813010102678000009307050003
:102C0C00630A050283260506130580FF6386060208
:102C1C0003A74706630207026370D70203A7870264
:102C2C0083A78705130590FF6318F70013050000B1
:102C3C0067800000130580FF67800000130101FB13
:102C4C0023248104232481032322910323261104AA
:102C5C002322910423202105232E3103232C41030D
:102C6C00232A51032328610323267103832C010596
:102C7C00032C410503248105630005109304050012
:102C8C00938B0500130580FF638A050E130A06005B
:102C9C006306060E138906006382060E232EF100CE
:102CAC00930A0700638C070C130B08006308080CCD
:102CBC00938908006384080C6302040C63800C0C79
:102CCC00630E0C0A1306000A93050000130504009A
:102CDC00EFE00FB90327C10193070409232C9409D2
:102CEC00232E84092320F100930804081308040000
:102CFC009387090093860A001306090093850B003D
:102D0C0013850400EFF09FB7631A05069307440977
:102D1C002320F10093088408130804049387090006
:102D2C0013070B0093860A001306090093050A008B
:102D3C0013850400EFF09FB4631205040327040904
:102D4C00832744096316F7020327C40983278409E0
:102D5C006370F702032744018327440563E0E7020D
:102D6C006318F700032704018327040563E8E700D1
:102D7C00130590FF6F008000130580FF8320C104B2
:102D8C000324810483244104032901048329C103FE
:102D9C00032A8103832A4103032B0103832BC102E2
:102DAC00032C8102832C4102130101056780000072
:102DBC00B786B8ED130700009307F0FF9386063231
:102DCC006316B70013C5F7FF678000003306E500F4
:102DDC0003460600B3C7C7001306800013D81700BC
:102DEC0093F7170063840700938706001306F6FF1A
:102DFC00B347F800E31406FE130717006FF05FFCEF
:102E0C00130305006384080023A008001305F0FFDA
:102E1C00630C0320638A07206388082063860520DF
:102E2C006304062063E2B620130503009396160094
:102E3C001303000093020000130E0000930E0E000B
:102E4C00139F0E01135F0F01B30FCF41939F0F011F
:102E5C0093DF0F0163F4BE1C93931E00B303750044
:102E6C0083D303006386E316138E0E00637ABE00D1
:102E7C0093131E00B303750083D303006394E3160E
:102E8C00130101FF23268100232491006F004004CD
:102E9C00130E0000930E0E006F008000938E1E0028
:102EAC00139F0E01135F0F01B30FCF41939F0F01BF
:102EBC0093DF0F0163FEBE0E93931E00B3037500E8
:102ECC0083D30300E38CE3FC138E0E00636EBE060B
:102EDC00330FEE4113140F01131F0F011354040190
:102EEC00336FFF01637C030D931F2300B38FF70136
:102EFC0023A0EF0113031300130F000063628F066E
:102F0C006314BE0A637C030B131E2300338EC701AC
:102F1C0023200E006F000001131E2300338EC70107
:102F2C002320FE01130313009382120093920201DB
:102F3C0093D202013305D500E31C56F423A068009C
:102F4C00130500006F00C00793131E00B303750038
:102F5C0083D30300E38EE3F6130E1E006FF01FF70E
:102F6C00B30FDF01939F1F00B30FF50193041F00F4
:102F7C0083D30F0063F8840083DF2F00939F0F012E
:102F8C00B3E3F301630C6802931F2300130F2F00AC
:102F9C00B38FF701131F0F0123A07F00135F0F01E5
:102FAC00130313006FF09FF5E366BEEE6FF0DFF7CF
:102FBC00138E0E00E39EBEF0E36003F71305E0FFF3
:102FCC000324C100832481001301010167800000E8
:102FDC00938E1E006FF0DFE6636A03011305E0FFBA
:102FEC0067800000130E1E006FF05FE8131E2300B5
:102FFC0093821200338EC701939202012320FE01AB
:10300C0093D20201130313003305D500E31656E2E5
:10301C0023A068001305000067800000E38EBEFA51
:10302C00138E0E006FF0DFE56780000013070500BC
:10303C00630205089307F00D1305000063FEB70645
:10304C00B7460000930700009386466D13060008F0
:10305C003385D70003550500B385E7009387270018
:10306C002390A500E396C7FEB74600009386466101
:10307C00930707081306071483D5060093872700C8
:10308C0093862600239FB7FEE398C7FEB746000041
:10309C00938646581307071C03D606009387270010
:1030AC0093862600239FC7FEE398E7FE1305000EC8
:1030BC006780000013050000678000006302051A9A
:1030CC00130101FD23248102232C4101232611022B
:1030DC002322910223202103232E31011304050006
:1030EC00130A06001305F0FF630806109389060007
:1030FC006384061013090700630007109307F02F71
:10310C0063FCB70EB774000037450000930841000C
:10311C00130800109387044C1307000093068000DB
:10312C0013068000930580001305456D23220100D2
:10313C0023240100EFF0DFCC6310050C03274100C2
:10314C00930700009386044C131727006396E70C33
:10315C003745000093088100130800109387044C36
:10316C00130700009306C000130680009305C000EF
:10317C0013054561EFF0DFC86310050803278100D4
:10318C009307000093060440131727001386044C82
:10319C006390E70A374500009308C100130800103C
:1031AC009387044C130700009306800013068000DD
:1031BC00930580001305455823260100EFF05FC4EA
:1031CC00631C05028326C100371700001307078014
:1031DC0013962600930700003304E4009384044CF8
:1031EC006394C706832741002320FA0083278100BC
:1031FC0023A0F9002320D9008320C10203248102DB
:10320C0083244102032901028329C101032A81017C
:10321C001301010367800000B385D70083A5050067
:10322C003306F400938747002320B6006FF01FF29B
:10323C003385C70003250500B385F6009387470047
:10324C0023A0A5006FF0DFF4B385970083A50500DC
:10325C003307F400938747002320B7006FF05FF823
:10326C001305F0FF67800000630A0500B707000232
:10327C002320F500B70720022322F5006780000009
:10328C0063880506130101FE232C810013840500BD
:10329C0083A5450023282101130906001306E1002C
:1032AC00232A9100232E110093040500EFF0CF96F2
:1032BC00631405028355E10013060900138504000D
:1032CC00EFF00F9D631A05008327040003274400C9
:1032DC002322F4002320E4008320C1010324810174
:1032EC0083244101032901011301010267800000BD
:1032FC00130580FF67800000130101FE232C810061
:10330C0013840600B7160000B306D500232A9100DB
:10331C009304070003D706FE23225101232E11002C
:10332C00938A0700232821012326310123244101FC
:10333C00232061019307E00763E6E7081309060001
:10334C00B384240393071700131757003307E500C2
:10335C00138B05002390F6FE130600029305000064
:10336C001305070013141400130A080093890800AE
:10337C0033046401EFD0DFCE3304940093071000C4
:10338C0023228500232625012318550123194501E5
:10339C00231A3501230EF500130500008320C1010B
:1033AC000324810183244101032901018329C100E4
:1033BC00032A8100832A4100032B0100130101021F
:1033CC00678000001305C0FF6FF05FFD630A0732D2
:1033DC00130101F7232C410723261108232481080C
:1033EC002322910823202109232E3107232A510758
:1033FC0023286107232671072324810723229107A1
:10340C002320A107232EB105138A0700638E072EF4
:10341C00B707E0FF9387F7FF13040700B377F500B6
:10342C0037070002930B0500130580FF6390E72E0E
:10343C009307F04F938A050063FAB72C93F71500A6
:10344C006396072C930776091307002813090600C7
:10345C00636EF72A938756001307001E138C060021
:10346C006366F72A37160000130646FE9305000024
:10347C0013050A00EFD0DFBE83570400B70E01001E
:10348C00374E0000232AF10283572400930D410389
:10349C00930C0000232CF1028357440013033000DB
:1034AC00938E0E80232EF10283576400130E4E75FB
:1034BC00930F40002320F104835784002322F1044E
:1034CC008357C4002324F1048357A4002326F1045A
:1034DC0003A60D006376930193880E006316060015
:1034EC00B70801009388F8FF93044001B3849C0251
:1034FC001307703E93070600B304990093940401DC
:10350C0093D404016374C7009307703E13074006FD
:10351C0033D7E7029306A000130B00002324E1022B
:10352C0033D7D702B3F7D7023377D7022328F10268
:10353C00930730062326E10263E6C700133B17000E
:10354C00130B1B00131F2B0093078102338FE70112
:10355C00130D00009302500083270F003307AC01BA
:10356C0013170701B387570293060000135707017F
:10357C00B307FE00B387A70183C30700B3D7DF00EF
:10358C00B3F77700938916006388070893890600C0
:10359C009389190063886900B3D73F01B3F77700AB
:1035AC00E39807FE9396060193D60601B387D9409C
:1035BC00B3869600939707019396060193D707015C
:1035CC001308100093D6060113860A0093850B008E
:1035DC0013050A00232ED101232CE101232A7100AB
:1035EC00232811012326E100EFF01FD1B74700007B
:1035FC000327C1008328010183234101032F81018B
:10360C00832EC10113033000138E477593025000B3
:10361C00930F4000631C050E6390690E130D1D0083
:10362C00E31C5DF29384440093940401130B1B0080
:10363C0093D40401E3183BF1938C1C0093077000A6
:10364C00938D4D00E396FCE88347E400930609094B
:10365C009396060193D606019308F0016384070044
:10366C009308007E130850009307300013070C00DA
:10367C0013860A0093850B0013050A00EFF0DFC7D1
:10368C00631605088347F4009306490993960601CF
:10369C00B708010093D6060193880880638407005D
:1036AC009308007E032481088320C10883244108E9
:1036BC00032901088329C107032B0107832C410629
:1036CC00032D0106832DC10513070C0013860A0078
:1036DC00032C8106832A410793850B0013050A00EE
:1036EC00832BC106032A810713085000930730006F
:1036FC00130101096FF05FC0938609006FF01FE89A
:10370C00130580FF67800000130580FF8320C1082C
:10371C000324810883244108032901088329C10754
:10372C00032A8107832A4107032B0107832BC10638
:10373C00032C8106832C4106032D0106832DC10524
:10374C0013010109678000006300050C130101FFE0
:10375C001306402593050000232611002324810025
:10376C0013040500EFD0DF8FB74500001306C0002F
:10377C009385857813050400EFD05F9C9307C418DC
:10378C0013070000930EC00493081000130EC00022
:10379C001303800013080001137677003306D60359
:1037AC00935637009386160093965600939606010F
:1037BC009375170093D606411305F0FF1306860187
:1037CC0013160601135606416384050013051000F9
:1037DC002390C7002391D7002392A7002384C7010D
:1037EC00A384670023851701130717009387C7006D
:1037FC00E31407FB8320C1002317E4240324810076
:10380C001301010167800000678000006306051C3E
:10381C00631406001306100093F73500930610008E
:10382C0003170500639CD71A931716009387F700AC
:10383C0093060001B3C7D7023307F7402310E50006
:10384C008317050063D40700231005000347850088
:10385C008316050093070028B387E74063D8D70089
:10386C0093070028B387E7402310F50093F5450034
:10387C00638005068327052513073000B3F7E7029D
:10388C00639807041307650193060002834507003C
:10389C00639805169306C000B387D702035725001B
:1038AC00835605001307C7FF93863600B307F50050
:1038BC002397E7003707FCFF23A8E70013072040F6
:1038CC00239AE700130710002396D700238BE700F9
:1038DC001307E5009306E51893050001834787005D
:1038EC00638607028317470003580700B387C70294
:1038FC00B3C7B702B38707019397070193D7074163
:10390C002310F70063D40700230407001307C70034
:10391C00E316D7FC9307C5189306C524930500013D
:10392C0013080028930800281303F0FF130E10004F
:10393C0003C7A700630207040397470083DE070051
:10394C003307C7023347B7023307D70113170701F1
:10395C0013570741635EE00A2390E70003C7870013
:10396C00039F0700B30EE8406348DF013387E8404C
:10397C002390E700239267009387C700E39AD7FA56
:10398C0093076501930665191307000003C607002A
:10399C009387C7003307C700131707011357070195
:1039AC00E396D7FE2316E52493066525130700003E
:1039BC0003C607009387C7003307C7001317070117
:1039CC0013570701E396F6FE832705252317E524F5
:1039DC00938717002328F5246780000093062000A6
:1039EC00E390D7E6931716009387F7009306000130
:1039FC00B3C7D702B387E7002310F5006FF05FE47D
:103A0C00938717001307C700E392D7E86FF05FECBA
:103A1C00239007002392C7016FF05FF4630605281B
:103A2C00130101FC232C8102232A9102232E110263
:103A3C00232821032326310323244103232251036A
:103A4C0023206103232E7101232C8101232A910150
:103A5C002328A1012326B101930405001384060039
:103A6C00130580FF63800620B707E0FF9387F7FFFD
:103A7C00B3F7F50037070002938905006394E71E3E
:103A8C00130A060093050000130640641385060014
:103A9C00EFD00FDD930700502326F400B707E001A9
:103AAC00938707282328F40093071000230EF400B3
:103ABC00930720002310F46423223401B74700003D
:103ACC0093874757630E0A1C37470000032B475652
:103ADC00039924001307002803DC87003309E9024B
:103AEC000397040083AB4700930A30003309E900C5
:103AFC00131919003309390163040A00930A5000A1
:103B0C00130600029305000013050402EFD04FD5F5
:103B1C00930700502326F402930710002311F4643A
:103B2C00B7470000938747602324840383DC870016
:103B3C0003AC070003AD470023206403230E54039A
:103B4C0037EBFFFF938AC418232874032322240322
:103B5C00938BC424138A0A00930D0028130B4B007B
:103B6C0083C7AA006384070603992A008357046459
:103B7C00130600023309B903938617002310D4648B
:103B8C0083960A0093975700B307F4001385070038
:103B9C00930500003309D90013191900EFD04FCC4D
:103BAC0033093901130700502320850123222501F5
:103BBC00232495012326E5002328A501231E650156
:103BCC0083572464938717002311F464938ACA00E3
:103BDC00E3987AF99384C400930A0028130B0050DD
:103BEC00930BF0FF130C100083C7A4006386070629
:103BFC000399240083570464130600023309590304
:103C0C00138717002310E46403970400939757005D
:103C1C00B307F400138507009305000003CD84005F
:103C2C0083CC94003309E90013191900EFD04FC36A
:103C3C00330939012322250123266501230E850131
:103C4C00835724642318A50123199501231A7501A0
:103C5C00938717002311F4649384C400E3169AF835
:103C6C00130500008320C103032481038324410333
:103C7C00032901038329C102032A8102832A4102F9
:103C8C00032B0102832BC101032C8101832C4101E5
:103C9C00032D0101832DC100130101046780000075
:103CAC0003AB07006FF0DFE2130580FF67800000B5
:103CBC00630C050C130101FD2324810223229102C4
:103CCC002326110223202103232E3101232C410111
:103CDC001304050093840500130580FF6386050813
:103CEC0083D70564130710039387F7FF9397070196
:103CFC0093D70701636AF706930906001389060038
:103D0C0023170100130A000083D704646360FA02CE
:103D1C0013050000638A09048355E10013060900AA
:103D2C0013050400EFE0CFF66F00000493155A0062
:103D3C009306E10013060900B385B40013050400D3
:103D4C00EFE00FDC6312050263860900130A1A0008
:103D5C006FF09FFB8355E100130609001305040067
:103D6C00EFE00FF3E30405FE8320C102032481027C
:103D7C0083244102032901028329C101032A810101
:103D8C001301010367800000130580FF67800000AA
:103D9C001308060093080500138705006390060EB0
:103DAC0063FEC512B7070100636EF61EB70700016C
:103DBC00930680016374F600930600013353D6001A
:103DCC00971700009387879CB387670083C707000A
:103DDC0013030002B387D700B306F340630CF30060
:103DEC003397D500B357F5003318D60033E7E70007
:103DFC00B318D500135608013355C70293160801A2
:103E0C0093D6060193D708013377C702B385A60270
:103E1C0013170701B3E7E70063FCB700B307F8001B
:103E2C001307F5FF63E4070163E0B74013050700D0
:103E3C00B387B74033D7C7029398080193D80801CA
:103E4C00B3F7C702B386E60293970701B3E8F8000D
:103E5C0063FED800B30818019307F7FF63E6080167
:103E6C001307E7FF63E4D800138707001315050158
:103E7C003365E500930500006780000063F8D5000A
:103E8C00930500001305000067800000B7070100D0
:103E9C0063E8F61E370700019307800163F4E60020
:103EAC009307000133D8F600171700001307078E8D
:103EBC003307070103470700930800023307F70095
:103ECC003388E8406396E81E63E4B6323335C500A8
:103EDC00133515009305000067800000630C060C79
:103EEC00B7070100637CF62E133706101337170043
:103EFC0013173700B356E60097170000938707890E
:103F0C00B387D70083C7070093060002B387E70087
:103F1C00B38EF6406394F60CB387C54093560601F6
:103F2C0013160601135606019305100033D5D7025C
:103F3C0013D70801B3F7D7023303C50293970701D0
:103F4C00B367F70063FC6700B307F8001307F5FFCE
:103F5C0063E4070163E4672C13050700B38767402C
:103F6C0033D7D7029398080193D80801B3F7D70237
:103F7C003306C70293970701B3E8F80063FEC80045
:103F8C00B30818019307F7FF63E608011307E7FF6F
:103F9C0063E4C80013870700131505013365E500BA
:103FAC00678000009336061093B616009396360081
:103FBC006FF0DFE093060000970700009387077D02
:103FCC00B387D70083C707001307000093060002CE
:103FDC00B387E700B38EF640E380F6F43318D601CE
:103FEC0033D3F50093560801335ED3021316080140
:103FFC00B395D50113560601B357F500B3E7B700D7
:10400C0013D70701B318D5013373D302B305C60315
:10401C001313030133676700637EB7003307E800AF
:10402C001305FEFF6364071F6372B71E130EEEFFCA
:10403C00330707013307B7403355D702939707016E
:10404C0093D707013377D7023303A602131707015F
:10405C00B3E7E70063FE6700B307F8001307F5FF4B
:10406C0063EE071963FC67181305E5FFB3870701B7
:10407C0093150E01B3876740B3E5A5006FF01FEBF6
:10408C0093B7061093B717009397370033D8F60001
:10409C00170700001307876F330707010347070053
:1040AC00930800023307F7003388E840E38EE8E01A
:1040BC00335EE600B3960601336EDE00B3D8E5003E
:1040CC00935E0E01B3D7D80313130E01B3950501FC
:1040DC00135303013357E5003367B70093560701B9
:1040EC0033160601B3F8D803B305F302939808010D
:1040FC00B3E6160163FEB600B306DE009388F7FF45
:10410C0063EAC61163F8B6109387E7FFB386C6015E
:10411C00B386B640B3D5D60313170701135707015F
:10412C00B3F6D603B308B302939606013367D700F0
:10413C00637E17013307EE009386F5FF6364C70DAA
:10414C006372170D9385E5FF3307C701939707013A
:10415C00B70E0100B3E7B7009386FEFFB3F5D700A7
:10416C0013D30701B376D60013560601338ED5024E
:10417C0033071741B306D30293580E01B385C5021A
:10418C00B385D500B385B8003303C30263F4D500FF
:10419C003303D30193D60501B3866600636AD70255
:1041AC006308D700138507009305000067800000A3
:1041BC00B70601009386F6FF33F7D50013170701F6
:1041CC00337EDE00331505013307C701E37CE5FCC4
:1041DC001385F7FF9305000067800000B707000107
:1041EC00637AF60493560601130700016FF0DFD0D3
:1041FC0093050000130510006780000013050700ED
:10420C006FF01FE7938506006FF05FF4130E050047
:10421C006FF05FE2938708006FF09FEF1305E5FFE7
:10422C00B38707016FF09FD31305E5FFB387070131
:10423C006FF01FC093568601130780016FF0DFCB20
:10424C003C466C6F6174696E6720706F696E742088
:10425C007072696E74696E67206E6F7420656E6122
:10426C00626C652E20506C6561736520456E6162D1
:10427C006C65206974206174206273702E682066EE
:10428C00697273742E2E2E3E0000000030313233D2
:10429C003435363738394142434445460000000036
:1042AC0030313233343536373839616263646566A0
:1042BC000000000047505520756E617661696C6195
:1042CC00626C653A2070726F62653D25643B2069B3
:1042DC006E746567726174696F6E2F626F61726460
:1042EC0020746573742070656E64696E670D0A00C6
:1042FC004750552067616D652073746F70706564ED
:10430C003A20726573756C743D2564206861726423
:10431C00776172653D2564202850524553454E54B3
:10432C00207265717569726573206C6561642044D7
:10433C0061793134290D0A004750552067616D654C
:10434C0020554E535441424C453A2070353D25641E
:10435C0020737072697465733D256420756E646595
:10436C0072666C6F773D2564206572726F72733D57
:10437C0025640D0A000000004750552067616D65EB
:10438C0020504153533A206672616D65733D333052
:10439C00302070353D256420737461626C655F73E9
:1043AC007072697465733D256420776169742D653D
:1043BC006163683D3135302062617463683D31352D
:1043CC00300D0A00514F532C66697865645F756E29
:1043DC00646572666C6F773D25642C6669786564DC
:1043EC005F7374616C6C3D25642C616461707469DD
:1043FC0076655F756E646572666C6F773D25642CAF
:10440C0061646170746976655F7374616C6C3D2571
:10441C00640D0A00514F535F44454C54412C756E4A
:10442C00646572666C6F77735F61766F69646564DF
:10443C003D25642C72656E6465725F7374616C6C7F
:10444C005F636F73743D25640D0A0000514F535F19
:10445C0045584143542C6672616D65733D33303061
:10446C002C66697865645F756E646572666C6F77CF
:10447C003D25642C61646170746976655F756E644A
:10448C006572666C6F773D25642C66697865645F30
:10449C006372633D25782C61646170746976655F25
:1044AC006372633D25782C636F6D6D616E645F681C
:1044BC006173683D25780D0A00000000535041528D
:1044CC0053452C64656D6F5F62797465733D25642B
:1044DC002C64656D6F5F64656E73653D25642C702F
:1044EC006C617965725F62797465733D25642C65C6
:1044FC006E656D795F62797465733D25640D0A0094
:10450C005350415253455F52554E54494D452C64BE
:10451C00656E73655F726561643D25642C737061B3
:10452C007273655F726561643D25642C64656E739E
:10453C00655F6379636C65733D25642C7370617280
:10454C0073655F6379636C65733D25642C6372637B
:10455C003D25780D0A000000000800060800080040
:10456C0000000000844500004001400208000800E3
:10457C001000000084450000000000000000000056
:10458C00000000000000000000000000000000001F
:10459C00000000000000000000000000E007E00741
:1045AC00E007E0070000000000000000E007FFFF4C
:1045BC00FFFFE0070000000000000000E007FFFF25
:1045CC00FFFFE0070000000000000000E007E0072C
:1045DC00E007E00700000000000000000000000001
:1045EC0000000000000000000000000000000000BF
:1045FC000000000000000000800040020C000800D9
:10460C00180000001446000000F800F8000000003C
:10461C0000000000000000000000000000F800F89E
:10462C00000000F800F800F8000000000000000096
:10463C0000F800F800F800000000000000F800F896
:10464C0000F800F800F800F800F800F8000000008E
:10465C00000000F800F8FFFF00F800F800F800F880
:10466C00FFFF00F800F8000000F800F800F800F870
:10467C0000F800F800F800F800F800F800F800F86E
:10468C0000F8000000F800F800F800F800F800F856
:10469C0000F800F8000000F800F8000000F8000036
:1046AC00000000000000000000F8000000F800000E
:1046BC000000000000F800F80000000000F800F80E
:1046CC00000000000000000000000000E007E00710
:1046DC00E007E007000000000000E007FFFFE00734
:1046EC00E007FFFFE0070000E007FFFFFFFFE00728
:1046FC00E007FFFFFFFFE007E007E007E007FFFF31
:10470C00FFFFE007E007E007E007E007FFFFFFFF20
:10471C00FFFFFFFFE007E0070000E007E007FFFFF7
:10472C00FFFFE007E007000000000000E007E007E3
:10473C00E007E00700000000000000001F00000080
:10474C0000001F0000000000070505050702060217
:10475C000207070107040707010701070505070101
:10476C0001070407010707040705070701010101F9
:10477C000705070507070507010700003C01B801FD
:10478C0000000000080801000001020203030303FB
:10479C0004040404040404040505050505050505C5
:1047AC0005050505050505050606060606060606A5
:1047BC00060606060606060606060606060606068D
:1047CC000606060606060606070707070707070775
:1047DC00070707070707070707070707070707075D
:1047EC00070707070707070707070707070707074D
:1047FC00070707070707070707070707070707073D
:10480C000707070707070707080808080808080824
:10481C00080808080808080808080808080808080C
:10482C0008080808080808080808080808080808FC
:10483C0008080808080808080808080808080808EC
:10484C0008080808080808080808080808080808DC
:10485C0008080808080808080808080808080808CC
:10486C0008080808080808080808080808080808BC
:10487C0008080808080808080808080808080808AC
:10488C0008080808080808080000000000000000DC
:06489C0000000000000016
:0400000300001000E9
:00000001FF
